{
	"contract/fundme/fundme.sol": {
		"Fundme": {
			"abi": [
				{
					"inputs": [
						{
							"internalType": "address",
							"name": "",
							"type": "address"
						}
					],
					"name": "addtofunded",
					"outputs": [
						{
							"internalType": "uint256",
							"name": "",
							"type": "uint256"
						}
					],
					"stateMutability": "view",
					"type": "function"
				},
				{
					"inputs": [],
					"name": "fund",
					"outputs": [],
					"stateMutability": "payable",
					"type": "function"
				},
				{
					"inputs": [
						{
							"internalType": "uint256",
							"name": "",
							"type": "uint256"
						}
					],
					"name": "funders",
					"outputs": [
						{
							"internalType": "address",
							"name": "",
							"type": "address"
						}
					],
					"stateMutability": "view",
					"type": "function"
				},
				{
					"inputs": [],
					"name": "miniUSD",
					"outputs": [
						{
							"internalType": "uint256",
							"name": "",
							"type": "uint256"
						}
					],
					"stateMutability": "view",
					"type": "function"
				},
				{
					"inputs": [],
					"name": "withdraw",
					"outputs": [],
					"stateMutability": "nonpayable",
					"type": "function"
				}
			],
			"devdoc": {
				"kind": "dev",
				"methods": {},
				"version": 1
			},
			"evm": {
				"assembly": "    /* \"contract/fundme/fundme.sol\":111:1053  contract Fundme {... */\n  mstore(0x40, 0x80)\n  callvalue\n  dup1\n  iszero\n  tag_1\n  jumpi\n  0x00\n  dup1\n  revert\ntag_1:\n  pop\n  dataSize(sub_0)\n  dup1\n  dataOffset(sub_0)\n  0x00\n  codecopy\n  0x00\n  return\nstop\n\nsub_0: assembly {\n        /* \"contract/fundme/fundme.sol\":111:1053  contract Fundme {... */\n      mstore(0x40, 0x80)\n      jumpi(tag_1, lt(calldatasize, 0x04))\n      shr(0xe0, calldataload(0x00))\n      dup1\n      0x3ccfd60b\n      eq\n      tag_2\n      jumpi\n      dup1\n      0x73cef391\n      eq\n      tag_3\n      jumpi\n      dup1\n      0xb60d4288\n      eq\n      tag_4\n      jumpi\n      dup1\n      0xdc0d3dff\n      eq\n      tag_5\n      jumpi\n      dup1\n      0xde2b1221\n      eq\n      tag_6\n      jumpi\n    tag_1:\n      0x00\n      dup1\n      revert\n        /* \"contract/fundme/fundme.sol\":616:1024  function withdraw() public {... */\n    tag_2:\n      callvalue\n      dup1\n      iszero\n      tag_7\n      jumpi\n      0x00\n      dup1\n      revert\n    tag_7:\n      pop\n      tag_8\n      tag_9\n      jump\t// in\n    tag_8:\n      stop\n        /* \"contract/fundme/fundme.sol\":171:209  uint256 constant public miniUSD = 5e18 */\n    tag_3:\n      callvalue\n      dup1\n      iszero\n      tag_10\n      jumpi\n      0x00\n      dup1\n      revert\n    tag_10:\n      pop\n      tag_11\n      tag_12\n      jump\t// in\n    tag_11:\n      mload(0x40)\n      tag_13\n      swap2\n      swap1\n      tag_14\n      jump\t// in\n    tag_13:\n      mload(0x40)\n      dup1\n      swap2\n      sub\n      swap1\n      return\n        /* \"contract/fundme/fundme.sol\":372:610  function fund() public payable {... */\n    tag_4:\n      tag_15\n      tag_16\n      jump\t// in\n    tag_15:\n      stop\n        /* \"contract/fundme/fundme.sol\":215:239  address[] public funders */\n    tag_5:\n      callvalue\n      dup1\n      iszero\n      tag_17\n      jumpi\n      0x00\n      dup1\n      revert\n    tag_17:\n      pop\n      tag_18\n      0x04\n      dup1\n      calldatasize\n      sub\n      dup2\n      add\n      swap1\n      tag_19\n      swap2\n      swap1\n      tag_20\n      jump\t// in\n    tag_19:\n      tag_21\n      jump\t// in\n    tag_18:\n      mload(0x40)\n      tag_22\n      swap2\n      swap1\n      tag_23\n      jump\t// in\n    tag_22:\n      mload(0x40)\n      dup1\n      swap2\n      sub\n      swap1\n      return\n        /* \"contract/fundme/fundme.sol\":245:291  mapping(address => uint256) public addtofunded */\n    tag_6:\n      callvalue\n      dup1\n      iszero\n      tag_24\n      jumpi\n      0x00\n      dup1\n      revert\n    tag_24:\n      pop\n      tag_25\n      0x04\n      dup1\n      calldatasize\n      sub\n      dup2\n      add\n      swap1\n      tag_26\n      swap2\n      swap1\n      tag_27\n      jump\t// in\n    tag_26:\n      tag_28\n      jump\t// in\n    tag_25:\n      mload(0x40)\n      tag_29\n      swap2\n      swap1\n      tag_14\n      jump\t// in\n    tag_29:\n      mload(0x40)\n      dup1\n      swap2\n      sub\n      swap1\n      return\n        /* \"contract/fundme/fundme.sol\":616:1024  function withdraw() public {... */\n    tag_9:\n        /* \"contract/fundme/fundme.sol\":323:365  0x27cE496D9C4F570e38B85489f55e548923b60848 */\n      0x27ce496d9c4f570e38b85489f55e548923b60848\n        /* \"contract/fundme/fundme.sol\":670:689  msg.sender == owner */\n      0xffffffffffffffffffffffffffffffffffffffff\n      and\n        /* \"contract/fundme/fundme.sol\":670:680  msg.sender */\n      caller\n        /* \"contract/fundme/fundme.sol\":670:689  msg.sender == owner */\n      0xffffffffffffffffffffffffffffffffffffffff\n      and\n      eq\n        /* \"contract/fundme/fundme.sol\":662:712  require(msg.sender == owner , \"your not a owner!\") */\n      tag_31\n      jumpi\n      mload(0x40)\n      0x08c379a000000000000000000000000000000000000000000000000000000000\n      dup2\n      mstore\n      0x04\n      add\n      tag_32\n      swap1\n      tag_33\n      jump\t// in\n    tag_32:\n      mload(0x40)\n      dup1\n      swap2\n      sub\n      swap1\n      revert\n    tag_31:\n        /* \"contract/fundme/fundme.sol\":728:737  uint256 i */\n      0x00\n        /* \"contract/fundme/fundme.sol\":723:820  for (uint256 i = 0; i < funders.length; i++) {... */\n    tag_34:\n        /* \"contract/fundme/fundme.sol\":747:754  funders */\n      0x00\n        /* \"contract/fundme/fundme.sol\":747:761  funders.length */\n      dup1\n      sload\n      swap1\n      pop\n        /* \"contract/fundme/fundme.sol\":743:744  i */\n      dup2\n        /* \"contract/fundme/fundme.sol\":743:761  i < funders.length */\n      lt\n        /* \"contract/fundme/fundme.sol\":723:820  for (uint256 i = 0; i < funders.length; i++) {... */\n      iszero\n      tag_35\n      jumpi\n        /* \"contract/fundme/fundme.sol\":808:809  0 */\n      0x00\n        /* \"contract/fundme/fundme.sol\":782:793  addtofunded */\n      0x01\n        /* \"contract/fundme/fundme.sol\":782:805  addtofunded[funders[i]] */\n      0x00\n        /* \"contract/fundme/fundme.sol\":794:801  funders */\n      dup1\n        /* \"contract/fundme/fundme.sol\":802:803  i */\n      dup5\n        /* \"contract/fundme/fundme.sol\":794:804  funders[i] */\n      dup2\n      sload\n      dup2\n      lt\n      tag_37\n      jumpi\n      tag_38\n      tag_39\n      jump\t// in\n    tag_38:\n    tag_37:\n      swap1\n      0x00\n      mstore\n      keccak256(0x00, 0x20)\n      add\n      0x00\n      swap1\n      sload\n      swap1\n      0x0100\n      exp\n      swap1\n      div\n      0xffffffffffffffffffffffffffffffffffffffff\n      and\n        /* \"contract/fundme/fundme.sol\":782:805  addtofunded[funders[i]] */\n      0xffffffffffffffffffffffffffffffffffffffff\n      and\n      0xffffffffffffffffffffffffffffffffffffffff\n      and\n      dup2\n      mstore\n      0x20\n      add\n      swap1\n      dup2\n      mstore\n      0x20\n      add\n      0x00\n      keccak256\n        /* \"contract/fundme/fundme.sol\":782:809  addtofunded[funders[i]] = 0 */\n      dup2\n      swap1\n      sstore\n      pop\n        /* \"contract/fundme/fundme.sol\":763:766  i++ */\n      dup1\n      dup1\n      0x01\n      add\n      swap2\n      pop\n      pop\n        /* \"contract/fundme/fundme.sol\":723:820  for (uint256 i = 0; i < funders.length; i++) {... */\n      jump(tag_34)\n    tag_35:\n      pop\n        /* \"contract/fundme/fundme.sol\":853:854  0 */\n      0x00\n        /* \"contract/fundme/fundme.sol\":839:855  new address[](0) */\n      0xffffffffffffffff\n      dup2\n      gt\n      iszero\n      tag_41\n      jumpi\n      tag_42\n      tag_43\n      jump\t// in\n    tag_42:\n    tag_41:\n      mload(0x40)\n      swap1\n      dup1\n      dup3\n      mstore\n      dup1\n      0x20\n      mul\n      0x20\n      add\n      dup3\n      add\n      0x40\n      mstore\n      dup1\n      iszero\n      tag_44\n      jumpi\n      dup2\n      0x20\n      add\n      0x20\n      dup3\n      mul\n      dup1\n      calldatasize\n      dup4\n      calldatacopy\n      dup1\n      dup3\n      add\n      swap2\n      pop\n      pop\n      swap1\n      pop\n    tag_44:\n      pop\n        /* \"contract/fundme/fundme.sol\":829:836  funders */\n      0x00\n        /* \"contract/fundme/fundme.sol\":829:855  funders = new address[](0) */\n      swap1\n      dup1\n      mload\n      swap1\n      0x20\n      add\n      swap1\n      tag_45\n      swap3\n      swap2\n      swap1\n      tag_46\n      jump\t// in\n    tag_45:\n      pop\n        /* \"contract/fundme/fundme.sol\":866:879  bool issucess */\n      0x00\n        /* \"contract/fundme/fundme.sol\":893:903  msg.sender */\n      caller\n        /* \"contract/fundme/fundme.sol\":885:909  payable(msg.sender).call */\n      0xffffffffffffffffffffffffffffffffffffffff\n      and\n        /* \"contract/fundme/fundme.sol\":930:951  address(this).balance */\n      selfbalance\n        /* \"contract/fundme/fundme.sol\":885:965  payable(msg.sender).call{... */\n      mload(0x40)\n      tag_47\n      swap1\n      tag_48\n      jump\t// in\n    tag_47:\n      0x00\n      mload(0x40)\n      dup1\n      dup4\n      sub\n      dup2\n      dup6\n      dup8\n      gas\n      call\n      swap3\n      pop\n      pop\n      pop\n      returndatasize\n      dup1\n      0x00\n      dup2\n      eq\n      tag_51\n      jumpi\n      mload(0x40)\n      swap2\n      pop\n      and(add(returndatasize, 0x3f), not(0x1f))\n      dup3\n      add\n      0x40\n      mstore\n      returndatasize\n      dup3\n      mstore\n      returndatasize\n      0x00\n      0x20\n      dup5\n      add\n      returndatacopy\n      jump(tag_50)\n    tag_51:\n      0x60\n      swap2\n      pop\n    tag_50:\n      pop\n        /* \"contract/fundme/fundme.sol\":865:965  (bool issucess, ) = payable(msg.sender).call{... */\n      pop\n      swap1\n      pop\n        /* \"contract/fundme/fundme.sol\":983:991  issucess */\n      dup1\n        /* \"contract/fundme/fundme.sol\":975:1017  require(issucess, \"transection is failed\") */\n      tag_52\n      jumpi\n      mload(0x40)\n      0x08c379a000000000000000000000000000000000000000000000000000000000\n      dup2\n      mstore\n      0x04\n      add\n      tag_53\n      swap1\n      tag_54\n      jump\t// in\n    tag_53:\n      mload(0x40)\n      dup1\n      swap2\n      sub\n      swap1\n      revert\n    tag_52:\n        /* \"contract/fundme/fundme.sol\":643:1024  {... */\n      pop\n        /* \"contract/fundme/fundme.sol\":616:1024  function withdraw() public {... */\n      jump\t// out\n        /* \"contract/fundme/fundme.sol\":171:209  uint256 constant public miniUSD = 5e18 */\n    tag_12:\n        /* \"contract/fundme/fundme.sol\":205:209  5e18 */\n      0x4563918244f40000\n        /* \"contract/fundme/fundme.sol\":171:209  uint256 constant public miniUSD = 5e18 */\n      dup2\n      jump\t// out\n        /* \"contract/fundme/fundme.sol\":372:610  function fund() public payable {... */\n    tag_16:\n        /* \"contract/fundme/fundme.sol\":205:209  5e18 */\n      0x4563918244f40000\n        /* \"contract/fundme/fundme.sol\":421:445  msg.value.convertPrice() */\n      tag_56\n        /* \"contract/fundme/fundme.sol\":421:430  msg.value */\n      callvalue\n        /* \"contract/fundme/fundme.sol\":421:443  msg.value.convertPrice */\n      tag_57\n        /* \"contract/fundme/fundme.sol\":421:445  msg.value.convertPrice() */\n      jump\t// in\n    tag_56:\n        /* \"contract/fundme/fundme.sol\":421:456  msg.value.convertPrice() >= miniUSD */\n      lt\n      iszero\n        /* \"contract/fundme/fundme.sol\":413:483  require(msg.value.convertPrice() >= miniUSD, \"didn't send enough ETH\") */\n      tag_58\n      jumpi\n      mload(0x40)\n      0x08c379a000000000000000000000000000000000000000000000000000000000\n      dup2\n      mstore\n      0x04\n      add\n      tag_59\n      swap1\n      tag_60\n      jump\t// in\n    tag_59:\n      mload(0x40)\n      dup1\n      swap2\n      sub\n      swap1\n      revert\n    tag_58:\n        /* \"contract/fundme/fundme.sol\":508:515  funders */\n      0x00\n        /* \"contract/fundme/fundme.sol\":521:531  msg.sender */\n      caller\n        /* \"contract/fundme/fundme.sol\":508:532  funders.push(msg.sender) */\n      swap1\n      dup1\n      0x01\n      dup2\n      sload\n      add\n      dup1\n      dup3\n      sstore\n      dup1\n      swap2\n      pop\n      pop\n      0x01\n      swap1\n      sub\n      swap1\n      0x00\n      mstore\n      keccak256(0x00, 0x20)\n      add\n      0x00\n      swap1\n      swap2\n      swap1\n      swap2\n      swap1\n      swap2\n      0x0100\n      exp\n      dup2\n      sload\n      dup2\n      0xffffffffffffffffffffffffffffffffffffffff\n      mul\n      not\n      and\n      swap1\n      dup4\n      0xffffffffffffffffffffffffffffffffffffffff\n      and\n      mul\n      or\n      swap1\n      sstore\n      pop\n        /* \"contract/fundme/fundme.sol\":594:603  msg.value */\n      callvalue\n        /* \"contract/fundme/fundme.sol\":568:579  addtofunded */\n      0x01\n        /* \"contract/fundme/fundme.sol\":568:591  addtofunded[msg.sender] */\n      0x00\n        /* \"contract/fundme/fundme.sol\":580:590  msg.sender */\n      caller\n        /* \"contract/fundme/fundme.sol\":568:591  addtofunded[msg.sender] */\n      0xffffffffffffffffffffffffffffffffffffffff\n      and\n      0xffffffffffffffffffffffffffffffffffffffff\n      and\n      dup2\n      mstore\n      0x20\n      add\n      swap1\n      dup2\n      mstore\n      0x20\n      add\n      0x00\n      keccak256\n      sload\n        /* \"contract/fundme/fundme.sol\":568:603  addtofunded[msg.sender] + msg.value */\n      tag_62\n      swap2\n      swap1\n      tag_63\n      jump\t// in\n    tag_62:\n        /* \"contract/fundme/fundme.sol\":542:553  addtofunded */\n      0x01\n        /* \"contract/fundme/fundme.sol\":542:565  addtofunded[msg.sender] */\n      0x00\n        /* \"contract/fundme/fundme.sol\":554:564  msg.sender */\n      caller\n        /* \"contract/fundme/fundme.sol\":542:565  addtofunded[msg.sender] */\n      0xffffffffffffffffffffffffffffffffffffffff\n      and\n      0xffffffffffffffffffffffffffffffffffffffff\n      and\n      dup2\n      mstore\n      0x20\n      add\n      swap1\n      dup2\n      mstore\n      0x20\n      add\n      0x00\n      keccak256\n        /* \"contract/fundme/fundme.sol\":542:603  addtofunded[msg.sender] = addtofunded[msg.sender] + msg.value */\n      dup2\n      swap1\n      sstore\n      pop\n        /* \"contract/fundme/fundme.sol\":372:610  function fund() public payable {... */\n      jump\t// out\n        /* \"contract/fundme/fundme.sol\":215:239  address[] public funders */\n    tag_21:\n      0x00\n      dup2\n      dup2\n      sload\n      dup2\n      lt\n      tag_64\n      jumpi\n      0x00\n      dup1\n      revert\n    tag_64:\n      swap1\n      0x00\n      mstore\n      keccak256(0x00, 0x20)\n      add\n      0x00\n      swap2\n      pop\n      sload\n      swap1\n      0x0100\n      exp\n      swap1\n      div\n      0xffffffffffffffffffffffffffffffffffffffff\n      and\n      dup2\n      jump\t// out\n        /* \"contract/fundme/fundme.sol\":245:291  mapping(address => uint256) public addtofunded */\n    tag_28:\n      mstore(0x20, 0x01)\n      dup1\n      0x00\n      mstore\n      keccak256(0x00, 0x40)\n      0x00\n      swap2\n      pop\n      swap1\n      pop\n      sload\n      dup2\n      jump\t// out\n        /* \"contract/fundme/priceconverter.sol\":502:716  function convertPrice(uint256 ethamount) internal view returns (uint256) {... */\n    tag_57:\n        /* \"contract/fundme/priceconverter.sol\":566:573  uint256 */\n      0x00\n        /* \"contract/fundme/priceconverter.sol\":585:601  uint256 ethprice */\n      dup1\n        /* \"contract/fundme/priceconverter.sol\":604:614  getPrice() */\n      tag_67\n        /* \"contract/fundme/priceconverter.sol\":604:612  getPrice */\n      tag_68\n        /* \"contract/fundme/priceconverter.sol\":604:614  getPrice() */\n      jump\t// in\n    tag_67:\n        /* \"contract/fundme/priceconverter.sol\":585:614  uint256 ethprice = getPrice() */\n      swap1\n      pop\n        /* \"contract/fundme/priceconverter.sol\":624:646  uint256 ethamountInusd */\n      0x00\n        /* \"contract/fundme/priceconverter.sol\":674:678  1e18 */\n      0x0de0b6b3a7640000\n        /* \"contract/fundme/priceconverter.sol\":661:670  ethamount */\n      dup5\n        /* \"contract/fundme/priceconverter.sol\":650:658  ethprice */\n      dup4\n        /* \"contract/fundme/priceconverter.sol\":650:670  ethprice * ethamount */\n      tag_69\n      swap2\n      swap1\n      tag_70\n      jump\t// in\n    tag_69:\n        /* \"contract/fundme/priceconverter.sol\":649:678  (ethprice * ethamount) / 1e18 */\n      tag_71\n      swap2\n      swap1\n      tag_72\n      jump\t// in\n    tag_71:\n        /* \"contract/fundme/priceconverter.sol\":624:678  uint256 ethamountInusd = (ethprice * ethamount) / 1e18 */\n      swap1\n      pop\n        /* \"contract/fundme/priceconverter.sol\":695:709  ethamountInusd */\n      dup1\n        /* \"contract/fundme/priceconverter.sol\":688:709  return ethamountInusd */\n      swap3\n      pop\n      pop\n      pop\n        /* \"contract/fundme/priceconverter.sol\":502:716  function convertPrice(uint256 ethamount) internal view returns (uint256) {... */\n      swap2\n      swap1\n      pop\n      jump\t// out\n        /* \"contract/fundme/priceconverter.sol\":206:496  function getPrice() internal view returns (uint256) {... */\n    tag_68:\n        /* \"contract/fundme/priceconverter.sol\":249:256  uint256 */\n      0x00\n        /* \"contract/fundme/priceconverter.sol\":268:299  AggregatorV3Interface pricefeed */\n      dup1\n        /* \"contract/fundme/priceconverter.sol\":337:379  0x694AA1769357215DE4FAC081bf1f309aDC325306 */\n      0x694aa1769357215de4fac081bf1f309adc325306\n        /* \"contract/fundme/priceconverter.sol\":268:389  AggregatorV3Interface pricefeed = AggregatorV3Interface(... */\n      swap1\n      pop\n        /* \"contract/fundme/priceconverter.sol\":402:414  int256 price */\n      0x00\n        /* \"contract/fundme/priceconverter.sol\":424:433  pricefeed */\n      dup2\n        /* \"contract/fundme/priceconverter.sol\":424:449  pricefeed.latestRoundData */\n      0xffffffffffffffffffffffffffffffffffffffff\n      and\n      0xfeaf968c\n        /* \"contract/fundme/priceconverter.sol\":424:451  pricefeed.latestRoundData() */\n      mload(0x40)\n      dup2\n      0xffffffff\n      and\n      0xe0\n      shl\n      dup2\n      mstore\n      0x04\n      add\n      0xa0\n      mload(0x40)\n      dup1\n      dup4\n      sub\n      dup2\n      dup7\n      gas\n      staticcall\n      iszero\n      dup1\n      iszero\n      tag_75\n      jumpi\n      returndatasize\n      0x00\n      dup1\n      returndatacopy\n      revert(0x00, returndatasize)\n    tag_75:\n      pop\n      pop\n      pop\n      pop\n      mload(0x40)\n      returndatasize\n      not(0x1f)\n      0x1f\n      dup3\n      add\n      and\n      dup3\n      add\n      dup1\n      0x40\n      mstore\n      pop\n      dup2\n      add\n      swap1\n      tag_76\n      swap2\n      swap1\n      tag_77\n      jump\t// in\n    tag_76:\n        /* \"contract/fundme/priceconverter.sol\":399:451  (, int256 price, , , ) = pricefeed.latestRoundData() */\n      pop\n      pop\n      pop\n      swap2\n      pop\n      pop\n        /* \"contract/fundme/priceconverter.sol\":484:488  1e10 */\n      0x02540be400\n        /* \"contract/fundme/priceconverter.sol\":476:481  price */\n      dup2\n        /* \"contract/fundme/priceconverter.sol\":476:488  price * 1e10 */\n      tag_78\n      swap2\n      swap1\n      tag_79\n      jump\t// in\n    tag_78:\n        /* \"contract/fundme/priceconverter.sol\":461:489  return uint256(price * 1e10) */\n      swap3\n      pop\n      pop\n      pop\n        /* \"contract/fundme/priceconverter.sol\":206:496  function getPrice() internal view returns (uint256) {... */\n      swap1\n      jump\t// out\n    tag_46:\n      dup3\n      dup1\n      sload\n      dup3\n      dup3\n      sstore\n      swap1\n      0x00\n      mstore\n      keccak256(0x00, 0x20)\n      swap1\n      dup2\n      add\n      swap3\n      dup3\n      iszero\n      tag_80\n      jumpi\n      swap2\n      0x20\n      mul\n      dup3\n      add\n    tag_81:\n      dup3\n      dup2\n      gt\n      iszero\n      tag_82\n      jumpi\n      dup3\n      mload\n      dup3\n      exp(0x0100, 0x00)\n      dup2\n      sload\n      dup2\n      0xffffffffffffffffffffffffffffffffffffffff\n      mul\n      not\n      and\n      swap1\n      dup4\n      0xffffffffffffffffffffffffffffffffffffffff\n      and\n      mul\n      or\n      swap1\n      sstore\n      pop\n      swap2\n      0x20\n      add\n      swap2\n      swap1\n      0x01\n      add\n      swap1\n      jump(tag_81)\n    tag_82:\n    tag_80:\n      pop\n      swap1\n      pop\n      tag_83\n      swap2\n      swap1\n      tag_84\n      jump\t// in\n    tag_83:\n      pop\n      swap1\n      jump\t// out\n    tag_84:\n    tag_85:\n      dup1\n      dup3\n      gt\n      iszero\n      tag_86\n      jumpi\n      0x00\n      dup2\n      0x00\n      swap1\n      sstore\n      pop\n      0x01\n      add\n      jump(tag_85)\n    tag_86:\n      pop\n      swap1\n      jump\t// out\n        /* \"#utility.yul\":7:84   */\n    tag_87:\n        /* \"#utility.yul\":44:51   */\n      0x00\n        /* \"#utility.yul\":73:78   */\n      dup2\n        /* \"#utility.yul\":62:78   */\n      swap1\n      pop\n        /* \"#utility.yul\":7:84   */\n      swap2\n      swap1\n      pop\n      jump\t// out\n        /* \"#utility.yul\":90:208   */\n    tag_88:\n        /* \"#utility.yul\":177:201   */\n      tag_121\n        /* \"#utility.yul\":195:200   */\n      dup2\n        /* \"#utility.yul\":177:201   */\n      tag_87\n      jump\t// in\n    tag_121:\n        /* \"#utility.yul\":172:175   */\n      dup3\n        /* \"#utility.yul\":165:202   */\n      mstore\n        /* \"#utility.yul\":90:208   */\n      pop\n      pop\n      jump\t// out\n        /* \"#utility.yul\":214:436   */\n    tag_14:\n        /* \"#utility.yul\":307:311   */\n      0x00\n        /* \"#utility.yul\":345:347   */\n      0x20\n        /* \"#utility.yul\":334:343   */\n      dup3\n        /* \"#utility.yul\":330:348   */\n      add\n        /* \"#utility.yul\":322:348   */\n      swap1\n      pop\n        /* \"#utility.yul\":358:429   */\n      tag_123\n        /* \"#utility.yul\":426:427   */\n      0x00\n        /* \"#utility.yul\":415:424   */\n      dup4\n        /* \"#utility.yul\":411:428   */\n      add\n        /* \"#utility.yul\":402:408   */\n      dup5\n        /* \"#utility.yul\":358:429   */\n      tag_88\n      jump\t// in\n    tag_123:\n        /* \"#utility.yul\":214:436   */\n      swap3\n      swap2\n      pop\n      pop\n      jump\t// out\n        /* \"#utility.yul\":523:640   */\n    tag_90:\n        /* \"#utility.yul\":632:633   */\n      0x00\n        /* \"#utility.yul\":629:630   */\n      dup1\n        /* \"#utility.yul\":622:634   */\n      revert\n        /* \"#utility.yul\":769:891   */\n    tag_92:\n        /* \"#utility.yul\":842:866   */\n      tag_128\n        /* \"#utility.yul\":860:865   */\n      dup2\n        /* \"#utility.yul\":842:866   */\n      tag_87\n      jump\t// in\n    tag_128:\n        /* \"#utility.yul\":835:840   */\n      dup2\n        /* \"#utility.yul\":832:867   */\n      eq\n        /* \"#utility.yul\":822:885   */\n      tag_129\n      jumpi\n        /* \"#utility.yul\":881:882   */\n      0x00\n        /* \"#utility.yul\":878:879   */\n      dup1\n        /* \"#utility.yul\":871:883   */\n      revert\n        /* \"#utility.yul\":822:885   */\n    tag_129:\n        /* \"#utility.yul\":769:891   */\n      pop\n      jump\t// out\n        /* \"#utility.yul\":897:1036   */\n    tag_93:\n        /* \"#utility.yul\":943:948   */\n      0x00\n        /* \"#utility.yul\":981:987   */\n      dup2\n        /* \"#utility.yul\":968:988   */\n      calldataload\n        /* \"#utility.yul\":959:988   */\n      swap1\n      pop\n        /* \"#utility.yul\":997:1030   */\n      tag_131\n        /* \"#utility.yul\":1024:1029   */\n      dup2\n        /* \"#utility.yul\":997:1030   */\n      tag_92\n      jump\t// in\n    tag_131:\n        /* \"#utility.yul\":897:1036   */\n      swap3\n      swap2\n      pop\n      pop\n      jump\t// out\n        /* \"#utility.yul\":1042:1371   */\n    tag_20:\n        /* \"#utility.yul\":1101:1107   */\n      0x00\n        /* \"#utility.yul\":1150:1152   */\n      0x20\n        /* \"#utility.yul\":1138:1147   */\n      dup3\n        /* \"#utility.yul\":1129:1136   */\n      dup5\n        /* \"#utility.yul\":1125:1148   */\n      sub\n        /* \"#utility.yul\":1121:1153   */\n      slt\n        /* \"#utility.yul\":1118:1237   */\n      iszero\n      tag_133\n      jumpi\n        /* \"#utility.yul\":1156:1235   */\n      tag_134\n      tag_90\n      jump\t// in\n    tag_134:\n        /* \"#utility.yul\":1118:1237   */\n    tag_133:\n        /* \"#utility.yul\":1276:1277   */\n      0x00\n        /* \"#utility.yul\":1301:1354   */\n      tag_135\n        /* \"#utility.yul\":1346:1353   */\n      dup5\n        /* \"#utility.yul\":1337:1343   */\n      dup3\n        /* \"#utility.yul\":1326:1335   */\n      dup6\n        /* \"#utility.yul\":1322:1344   */\n      add\n        /* \"#utility.yul\":1301:1354   */\n      tag_93\n      jump\t// in\n    tag_135:\n        /* \"#utility.yul\":1291:1354   */\n      swap2\n      pop\n        /* \"#utility.yul\":1247:1364   */\n      pop\n        /* \"#utility.yul\":1042:1371   */\n      swap3\n      swap2\n      pop\n      pop\n      jump\t// out\n        /* \"#utility.yul\":1377:1503   */\n    tag_94:\n        /* \"#utility.yul\":1414:1421   */\n      0x00\n        /* \"#utility.yul\":1454:1496   */\n      0xffffffffffffffffffffffffffffffffffffffff\n        /* \"#utility.yul\":1447:1452   */\n      dup3\n        /* \"#utility.yul\":1443:1497   */\n      and\n        /* \"#utility.yul\":1432:1497   */\n      swap1\n      pop\n        /* \"#utility.yul\":1377:1503   */\n      swap2\n      swap1\n      pop\n      jump\t// out\n        /* \"#utility.yul\":1509:1605   */\n    tag_95:\n        /* \"#utility.yul\":1546:1553   */\n      0x00\n        /* \"#utility.yul\":1575:1599   */\n      tag_138\n        /* \"#utility.yul\":1593:1598   */\n      dup3\n        /* \"#utility.yul\":1575:1599   */\n      tag_94\n      jump\t// in\n    tag_138:\n        /* \"#utility.yul\":1564:1599   */\n      swap1\n      pop\n        /* \"#utility.yul\":1509:1605   */\n      swap2\n      swap1\n      pop\n      jump\t// out\n        /* \"#utility.yul\":1611:1729   */\n    tag_96:\n        /* \"#utility.yul\":1698:1722   */\n      tag_140\n        /* \"#utility.yul\":1716:1721   */\n      dup2\n        /* \"#utility.yul\":1698:1722   */\n      tag_95\n      jump\t// in\n    tag_140:\n        /* \"#utility.yul\":1693:1696   */\n      dup3\n        /* \"#utility.yul\":1686:1723   */\n      mstore\n        /* \"#utility.yul\":1611:1729   */\n      pop\n      pop\n      jump\t// out\n        /* \"#utility.yul\":1735:1957   */\n    tag_23:\n        /* \"#utility.yul\":1828:1832   */\n      0x00\n        /* \"#utility.yul\":1866:1868   */\n      0x20\n        /* \"#utility.yul\":1855:1864   */\n      dup3\n        /* \"#utility.yul\":1851:1869   */\n      add\n        /* \"#utility.yul\":1843:1869   */\n      swap1\n      pop\n        /* \"#utility.yul\":1879:1950   */\n      tag_142\n        /* \"#utility.yul\":1947:1948   */\n      0x00\n        /* \"#utility.yul\":1936:1945   */\n      dup4\n        /* \"#utility.yul\":1932:1949   */\n      add\n        /* \"#utility.yul\":1923:1929   */\n      dup5\n        /* \"#utility.yul\":1879:1950   */\n      tag_96\n      jump\t// in\n    tag_142:\n        /* \"#utility.yul\":1735:1957   */\n      swap3\n      swap2\n      pop\n      pop\n      jump\t// out\n        /* \"#utility.yul\":1963:2085   */\n    tag_97:\n        /* \"#utility.yul\":2036:2060   */\n      tag_144\n        /* \"#utility.yul\":2054:2059   */\n      dup2\n        /* \"#utility.yul\":2036:2060   */\n      tag_95\n      jump\t// in\n    tag_144:\n        /* \"#utility.yul\":2029:2034   */\n      dup2\n        /* \"#utility.yul\":2026:2061   */\n      eq\n        /* \"#utility.yul\":2016:2079   */\n      tag_145\n      jumpi\n        /* \"#utility.yul\":2075:2076   */\n      0x00\n        /* \"#utility.yul\":2072:2073   */\n      dup1\n        /* \"#utility.yul\":2065:2077   */\n      revert\n        /* \"#utility.yul\":2016:2079   */\n    tag_145:\n        /* \"#utility.yul\":1963:2085   */\n      pop\n      jump\t// out\n        /* \"#utility.yul\":2091:2230   */\n    tag_98:\n        /* \"#utility.yul\":2137:2142   */\n      0x00\n        /* \"#utility.yul\":2175:2181   */\n      dup2\n        /* \"#utility.yul\":2162:2182   */\n      calldataload\n        /* \"#utility.yul\":2153:2182   */\n      swap1\n      pop\n        /* \"#utility.yul\":2191:2224   */\n      tag_147\n        /* \"#utility.yul\":2218:2223   */\n      dup2\n        /* \"#utility.yul\":2191:2224   */\n      tag_97\n      jump\t// in\n    tag_147:\n        /* \"#utility.yul\":2091:2230   */\n      swap3\n      swap2\n      pop\n      pop\n      jump\t// out\n        /* \"#utility.yul\":2236:2565   */\n    tag_27:\n        /* \"#utility.yul\":2295:2301   */\n      0x00\n        /* \"#utility.yul\":2344:2346   */\n      0x20\n        /* \"#utility.yul\":2332:2341   */\n      dup3\n        /* \"#utility.yul\":2323:2330   */\n      dup5\n        /* \"#utility.yul\":2319:2342   */\n      sub\n        /* \"#utility.yul\":2315:2347   */\n      slt\n        /* \"#utility.yul\":2312:2431   */\n      iszero\n      tag_149\n      jumpi\n        /* \"#utility.yul\":2350:2429   */\n      tag_150\n      tag_90\n      jump\t// in\n    tag_150:\n        /* \"#utility.yul\":2312:2431   */\n    tag_149:\n        /* \"#utility.yul\":2470:2471   */\n      0x00\n        /* \"#utility.yul\":2495:2548   */\n      tag_151\n        /* \"#utility.yul\":2540:2547   */\n      dup5\n        /* \"#utility.yul\":2531:2537   */\n      dup3\n        /* \"#utility.yul\":2520:2529   */\n      dup6\n        /* \"#utility.yul\":2516:2538   */\n      add\n        /* \"#utility.yul\":2495:2548   */\n      tag_98\n      jump\t// in\n    tag_151:\n        /* \"#utility.yul\":2485:2548   */\n      swap2\n      pop\n        /* \"#utility.yul\":2441:2558   */\n      pop\n        /* \"#utility.yul\":2236:2565   */\n      swap3\n      swap2\n      pop\n      pop\n      jump\t// out\n        /* \"#utility.yul\":2571:2740   */\n    tag_99:\n        /* \"#utility.yul\":2655:2666   */\n      0x00\n        /* \"#utility.yul\":2689:2695   */\n      dup3\n        /* \"#utility.yul\":2684:2687   */\n      dup3\n        /* \"#utility.yul\":2677:2696   */\n      mstore\n        /* \"#utility.yul\":2729:2733   */\n      0x20\n        /* \"#utility.yul\":2724:2727   */\n      dup3\n        /* \"#utility.yul\":2720:2734   */\n      add\n        /* \"#utility.yul\":2705:2734   */\n      swap1\n      pop\n        /* \"#utility.yul\":2571:2740   */\n      swap3\n      swap2\n      pop\n      pop\n      jump\t// out\n        /* \"#utility.yul\":2746:2913   */\n    tag_100:\n        /* \"#utility.yul\":2886:2905   */\n      0x796f7572206e6f742061206f776e657221000000000000000000000000000000\n        /* \"#utility.yul\":2882:2883   */\n      0x00\n        /* \"#utility.yul\":2874:2880   */\n      dup3\n        /* \"#utility.yul\":2870:2884   */\n      add\n        /* \"#utility.yul\":2863:2906   */\n      mstore\n        /* \"#utility.yul\":2746:2913   */\n      pop\n      jump\t// out\n        /* \"#utility.yul\":2919:3285   */\n    tag_101:\n        /* \"#utility.yul\":3061:3064   */\n      0x00\n        /* \"#utility.yul\":3082:3149   */\n      tag_155\n        /* \"#utility.yul\":3146:3148   */\n      0x11\n        /* \"#utility.yul\":3141:3144   */\n      dup4\n        /* \"#utility.yul\":3082:3149   */\n      tag_99\n      jump\t// in\n    tag_155:\n        /* \"#utility.yul\":3075:3149   */\n      swap2\n      pop\n        /* \"#utility.yul\":3158:3251   */\n      tag_156\n        /* \"#utility.yul\":3247:3250   */\n      dup3\n        /* \"#utility.yul\":3158:3251   */\n      tag_100\n      jump\t// in\n    tag_156:\n        /* \"#utility.yul\":3276:3278   */\n      0x20\n        /* \"#utility.yul\":3271:3274   */\n      dup3\n        /* \"#utility.yul\":3267:3279   */\n      add\n        /* \"#utility.yul\":3260:3279   */\n      swap1\n      pop\n        /* \"#utility.yul\":2919:3285   */\n      swap2\n      swap1\n      pop\n      jump\t// out\n        /* \"#utility.yul\":3291:3710   */\n    tag_33:\n        /* \"#utility.yul\":3457:3461   */\n      0x00\n        /* \"#utility.yul\":3495:3497   */\n      0x20\n        /* \"#utility.yul\":3484:3493   */\n      dup3\n        /* \"#utility.yul\":3480:3498   */\n      add\n        /* \"#utility.yul\":3472:3498   */\n      swap1\n      pop\n        /* \"#utility.yul\":3544:3553   */\n      dup2\n        /* \"#utility.yul\":3538:3542   */\n      dup2\n        /* \"#utility.yul\":3534:3554   */\n      sub\n        /* \"#utility.yul\":3530:3531   */\n      0x00\n        /* \"#utility.yul\":3519:3528   */\n      dup4\n        /* \"#utility.yul\":3515:3532   */\n      add\n        /* \"#utility.yul\":3508:3555   */\n      mstore\n        /* \"#utility.yul\":3572:3703   */\n      tag_158\n        /* \"#utility.yul\":3698:3702   */\n      dup2\n        /* \"#utility.yul\":3572:3703   */\n      tag_101\n      jump\t// in\n    tag_158:\n        /* \"#utility.yul\":3564:3703   */\n      swap1\n      pop\n        /* \"#utility.yul\":3291:3710   */\n      swap2\n      swap1\n      pop\n      jump\t// out\n        /* \"#utility.yul\":3716:3896   */\n    tag_39:\n        /* \"#utility.yul\":3764:3841   */\n      0x4e487b7100000000000000000000000000000000000000000000000000000000\n        /* \"#utility.yul\":3761:3762   */\n      0x00\n        /* \"#utility.yul\":3754:3842   */\n      mstore\n        /* \"#utility.yul\":3861:3865   */\n      0x32\n        /* \"#utility.yul\":3858:3859   */\n      0x04\n        /* \"#utility.yul\":3851:3866   */\n      mstore\n        /* \"#utility.yul\":3885:3889   */\n      0x24\n        /* \"#utility.yul\":3882:3883   */\n      0x00\n        /* \"#utility.yul\":3875:3890   */\n      revert\n        /* \"#utility.yul\":3902:4082   */\n    tag_43:\n        /* \"#utility.yul\":3950:4027   */\n      0x4e487b7100000000000000000000000000000000000000000000000000000000\n        /* \"#utility.yul\":3947:3948   */\n      0x00\n        /* \"#utility.yul\":3940:4028   */\n      mstore\n        /* \"#utility.yul\":4047:4051   */\n      0x41\n        /* \"#utility.yul\":4044:4045   */\n      0x04\n        /* \"#utility.yul\":4037:4052   */\n      mstore\n        /* \"#utility.yul\":4071:4075   */\n      0x24\n        /* \"#utility.yul\":4068:4069   */\n      0x00\n        /* \"#utility.yul\":4061:4076   */\n      revert\n        /* \"#utility.yul\":4088:4235   */\n    tag_102:\n        /* \"#utility.yul\":4189:4200   */\n      0x00\n        /* \"#utility.yul\":4226:4229   */\n      dup2\n        /* \"#utility.yul\":4211:4229   */\n      swap1\n      pop\n        /* \"#utility.yul\":4088:4235   */\n      swap3\n      swap2\n      pop\n      pop\n      jump\t// out\n        /* \"#utility.yul\":4241:4355   */\n    tag_103:\n      pop\n      jump\t// out\n        /* \"#utility.yul\":4361:4759   */\n    tag_104:\n        /* \"#utility.yul\":4520:4523   */\n      0x00\n        /* \"#utility.yul\":4541:4624   */\n      tag_164\n        /* \"#utility.yul\":4622:4623   */\n      0x00\n        /* \"#utility.yul\":4617:4620   */\n      dup4\n        /* \"#utility.yul\":4541:4624   */\n      tag_102\n      jump\t// in\n    tag_164:\n        /* \"#utility.yul\":4534:4624   */\n      swap2\n      pop\n        /* \"#utility.yul\":4633:4726   */\n      tag_165\n        /* \"#utility.yul\":4722:4725   */\n      dup3\n        /* \"#utility.yul\":4633:4726   */\n      tag_103\n      jump\t// in\n    tag_165:\n        /* \"#utility.yul\":4751:4752   */\n      0x00\n        /* \"#utility.yul\":4746:4749   */\n      dup3\n        /* \"#utility.yul\":4742:4753   */\n      add\n        /* \"#utility.yul\":4735:4753   */\n      swap1\n      pop\n        /* \"#utility.yul\":4361:4759   */\n      swap2\n      swap1\n      pop\n      jump\t// out\n        /* \"#utility.yul\":4765:5144   */\n    tag_48:\n        /* \"#utility.yul\":4949:4952   */\n      0x00\n        /* \"#utility.yul\":4971:5118   */\n      tag_167\n        /* \"#utility.yul\":5114:5117   */\n      dup3\n        /* \"#utility.yul\":4971:5118   */\n      tag_104\n      jump\t// in\n    tag_167:\n        /* \"#utility.yul\":4964:5118   */\n      swap2\n      pop\n        /* \"#utility.yul\":5135:5138   */\n      dup2\n        /* \"#utility.yul\":5128:5138   */\n      swap1\n      pop\n        /* \"#utility.yul\":4765:5144   */\n      swap2\n      swap1\n      pop\n      jump\t// out\n        /* \"#utility.yul\":5150:5321   */\n    tag_105:\n        /* \"#utility.yul\":5290:5313   */\n      0x7472616e73656374696f6e206973206661696c65640000000000000000000000\n        /* \"#utility.yul\":5286:5287   */\n      0x00\n        /* \"#utility.yul\":5278:5284   */\n      dup3\n        /* \"#utility.yul\":5274:5288   */\n      add\n        /* \"#utility.yul\":5267:5314   */\n      mstore\n        /* \"#utility.yul\":5150:5321   */\n      pop\n      jump\t// out\n        /* \"#utility.yul\":5327:5693   */\n    tag_106:\n        /* \"#utility.yul\":5469:5472   */\n      0x00\n        /* \"#utility.yul\":5490:5557   */\n      tag_170\n        /* \"#utility.yul\":5554:5556   */\n      0x15\n        /* \"#utility.yul\":5549:5552   */\n      dup4\n        /* \"#utility.yul\":5490:5557   */\n      tag_99\n      jump\t// in\n    tag_170:\n        /* \"#utility.yul\":5483:5557   */\n      swap2\n      pop\n        /* \"#utility.yul\":5566:5659   */\n      tag_171\n        /* \"#utility.yul\":5655:5658   */\n      dup3\n        /* \"#utility.yul\":5566:5659   */\n      tag_105\n      jump\t// in\n    tag_171:\n        /* \"#utility.yul\":5684:5686   */\n      0x20\n        /* \"#utility.yul\":5679:5682   */\n      dup3\n        /* \"#utility.yul\":5675:5687   */\n      add\n        /* \"#utility.yul\":5668:5687   */\n      swap1\n      pop\n        /* \"#utility.yul\":5327:5693   */\n      swap2\n      swap1\n      pop\n      jump\t// out\n        /* \"#utility.yul\":5699:6118   */\n    tag_54:\n        /* \"#utility.yul\":5865:5869   */\n      0x00\n        /* \"#utility.yul\":5903:5905   */\n      0x20\n        /* \"#utility.yul\":5892:5901   */\n      dup3\n        /* \"#utility.yul\":5888:5906   */\n      add\n        /* \"#utility.yul\":5880:5906   */\n      swap1\n      pop\n        /* \"#utility.yul\":5952:5961   */\n      dup2\n        /* \"#utility.yul\":5946:5950   */\n      dup2\n        /* \"#utility.yul\":5942:5962   */\n      sub\n        /* \"#utility.yul\":5938:5939   */\n      0x00\n        /* \"#utility.yul\":5927:5936   */\n      dup4\n        /* \"#utility.yul\":5923:5940   */\n      add\n        /* \"#utility.yul\":5916:5963   */\n      mstore\n        /* \"#utility.yul\":5980:6111   */\n      tag_173\n        /* \"#utility.yul\":6106:6110   */\n      dup2\n        /* \"#utility.yul\":5980:6111   */\n      tag_106\n      jump\t// in\n    tag_173:\n        /* \"#utility.yul\":5972:6111   */\n      swap1\n      pop\n        /* \"#utility.yul\":5699:6118   */\n      swap2\n      swap1\n      pop\n      jump\t// out\n        /* \"#utility.yul\":6124:6296   */\n    tag_107:\n        /* \"#utility.yul\":6264:6288   */\n      0x6469646e27742073656e6420656e6f7567682045544800000000000000000000\n        /* \"#utility.yul\":6260:6261   */\n      0x00\n        /* \"#utility.yul\":6252:6258   */\n      dup3\n        /* \"#utility.yul\":6248:6262   */\n      add\n        /* \"#utility.yul\":6241:6289   */\n      mstore\n        /* \"#utility.yul\":6124:6296   */\n      pop\n      jump\t// out\n        /* \"#utility.yul\":6302:6668   */\n    tag_108:\n        /* \"#utility.yul\":6444:6447   */\n      0x00\n        /* \"#utility.yul\":6465:6532   */\n      tag_176\n        /* \"#utility.yul\":6529:6531   */\n      0x16\n        /* \"#utility.yul\":6524:6527   */\n      dup4\n        /* \"#utility.yul\":6465:6532   */\n      tag_99\n      jump\t// in\n    tag_176:\n        /* \"#utility.yul\":6458:6532   */\n      swap2\n      pop\n        /* \"#utility.yul\":6541:6634   */\n      tag_177\n        /* \"#utility.yul\":6630:6633   */\n      dup3\n        /* \"#utility.yul\":6541:6634   */\n      tag_107\n      jump\t// in\n    tag_177:\n        /* \"#utility.yul\":6659:6661   */\n      0x20\n        /* \"#utility.yul\":6654:6657   */\n      dup3\n        /* \"#utility.yul\":6650:6662   */\n      add\n        /* \"#utility.yul\":6643:6662   */\n      swap1\n      pop\n        /* \"#utility.yul\":6302:6668   */\n      swap2\n      swap1\n      pop\n      jump\t// out\n        /* \"#utility.yul\":6674:7093   */\n    tag_60:\n        /* \"#utility.yul\":6840:6844   */\n      0x00\n        /* \"#utility.yul\":6878:6880   */\n      0x20\n        /* \"#utility.yul\":6867:6876   */\n      dup3\n        /* \"#utility.yul\":6863:6881   */\n      add\n        /* \"#utility.yul\":6855:6881   */\n      swap1\n      pop\n        /* \"#utility.yul\":6927:6936   */\n      dup2\n        /* \"#utility.yul\":6921:6925   */\n      dup2\n        /* \"#utility.yul\":6917:6937   */\n      sub\n        /* \"#utility.yul\":6913:6914   */\n      0x00\n        /* \"#utility.yul\":6902:6911   */\n      dup4\n        /* \"#utility.yul\":6898:6915   */\n      add\n        /* \"#utility.yul\":6891:6938   */\n      mstore\n        /* \"#utility.yul\":6955:7086   */\n      tag_179\n        /* \"#utility.yul\":7081:7085   */\n      dup2\n        /* \"#utility.yul\":6955:7086   */\n      tag_108\n      jump\t// in\n    tag_179:\n        /* \"#utility.yul\":6947:7086   */\n      swap1\n      pop\n        /* \"#utility.yul\":6674:7093   */\n      swap2\n      swap1\n      pop\n      jump\t// out\n        /* \"#utility.yul\":7099:7279   */\n    tag_109:\n        /* \"#utility.yul\":7147:7224   */\n      0x4e487b7100000000000000000000000000000000000000000000000000000000\n        /* \"#utility.yul\":7144:7145   */\n      0x00\n        /* \"#utility.yul\":7137:7225   */\n      mstore\n        /* \"#utility.yul\":7244:7248   */\n      0x11\n        /* \"#utility.yul\":7241:7242   */\n      0x04\n        /* \"#utility.yul\":7234:7249   */\n      mstore\n        /* \"#utility.yul\":7268:7272   */\n      0x24\n        /* \"#utility.yul\":7265:7266   */\n      0x00\n        /* \"#utility.yul\":7258:7273   */\n      revert\n        /* \"#utility.yul\":7285:7476   */\n    tag_63:\n        /* \"#utility.yul\":7325:7328   */\n      0x00\n        /* \"#utility.yul\":7344:7364   */\n      tag_182\n        /* \"#utility.yul\":7362:7363   */\n      dup3\n        /* \"#utility.yul\":7344:7364   */\n      tag_87\n      jump\t// in\n    tag_182:\n        /* \"#utility.yul\":7339:7364   */\n      swap2\n      pop\n        /* \"#utility.yul\":7378:7398   */\n      tag_183\n        /* \"#utility.yul\":7396:7397   */\n      dup4\n        /* \"#utility.yul\":7378:7398   */\n      tag_87\n      jump\t// in\n    tag_183:\n        /* \"#utility.yul\":7373:7398   */\n      swap3\n      pop\n        /* \"#utility.yul\":7421:7422   */\n      dup3\n        /* \"#utility.yul\":7418:7419   */\n      dup3\n        /* \"#utility.yul\":7414:7423   */\n      add\n        /* \"#utility.yul\":7407:7423   */\n      swap1\n      pop\n        /* \"#utility.yul\":7442:7445   */\n      dup1\n        /* \"#utility.yul\":7439:7440   */\n      dup3\n        /* \"#utility.yul\":7436:7446   */\n      gt\n        /* \"#utility.yul\":7433:7469   */\n      iszero\n      tag_184\n      jumpi\n        /* \"#utility.yul\":7449:7467   */\n      tag_185\n      tag_109\n      jump\t// in\n    tag_185:\n        /* \"#utility.yul\":7433:7469   */\n    tag_184:\n        /* \"#utility.yul\":7285:7476   */\n      swap3\n      swap2\n      pop\n      pop\n      jump\t// out\n        /* \"#utility.yul\":7482:7892   */\n    tag_70:\n        /* \"#utility.yul\":7522:7529   */\n      0x00\n        /* \"#utility.yul\":7545:7565   */\n      tag_187\n        /* \"#utility.yul\":7563:7564   */\n      dup3\n        /* \"#utility.yul\":7545:7565   */\n      tag_87\n      jump\t// in\n    tag_187:\n        /* \"#utility.yul\":7540:7565   */\n      swap2\n      pop\n        /* \"#utility.yul\":7579:7599   */\n      tag_188\n        /* \"#utility.yul\":7597:7598   */\n      dup4\n        /* \"#utility.yul\":7579:7599   */\n      tag_87\n      jump\t// in\n    tag_188:\n        /* \"#utility.yul\":7574:7599   */\n      swap3\n      pop\n        /* \"#utility.yul\":7634:7635   */\n      dup3\n        /* \"#utility.yul\":7631:7632   */\n      dup3\n        /* \"#utility.yul\":7627:7636   */\n      mul\n        /* \"#utility.yul\":7656:7686   */\n      tag_189\n        /* \"#utility.yul\":7674:7685   */\n      dup2\n        /* \"#utility.yul\":7656:7686   */\n      tag_87\n      jump\t// in\n    tag_189:\n        /* \"#utility.yul\":7645:7686   */\n      swap2\n      pop\n        /* \"#utility.yul\":7835:7836   */\n      dup3\n        /* \"#utility.yul\":7826:7833   */\n      dup3\n        /* \"#utility.yul\":7822:7837   */\n      div\n        /* \"#utility.yul\":7819:7820   */\n      dup5\n        /* \"#utility.yul\":7816:7838   */\n      eq\n        /* \"#utility.yul\":7796:7797   */\n      dup4\n        /* \"#utility.yul\":7789:7798   */\n      iszero\n        /* \"#utility.yul\":7769:7852   */\n      or\n        /* \"#utility.yul\":7746:7885   */\n      tag_190\n      jumpi\n        /* \"#utility.yul\":7865:7883   */\n      tag_191\n      tag_109\n      jump\t// in\n    tag_191:\n        /* \"#utility.yul\":7746:7885   */\n    tag_190:\n        /* \"#utility.yul\":7530:7892   */\n      pop\n        /* \"#utility.yul\":7482:7892   */\n      swap3\n      swap2\n      pop\n      pop\n      jump\t// out\n        /* \"#utility.yul\":7898:8078   */\n    tag_110:\n        /* \"#utility.yul\":7946:8023   */\n      0x4e487b7100000000000000000000000000000000000000000000000000000000\n        /* \"#utility.yul\":7943:7944   */\n      0x00\n        /* \"#utility.yul\":7936:8024   */\n      mstore\n        /* \"#utility.yul\":8043:8047   */\n      0x12\n        /* \"#utility.yul\":8040:8041   */\n      0x04\n        /* \"#utility.yul\":8033:8048   */\n      mstore\n        /* \"#utility.yul\":8067:8071   */\n      0x24\n        /* \"#utility.yul\":8064:8065   */\n      0x00\n        /* \"#utility.yul\":8057:8072   */\n      revert\n        /* \"#utility.yul\":8084:8269   */\n    tag_72:\n        /* \"#utility.yul\":8124:8125   */\n      0x00\n        /* \"#utility.yul\":8141:8161   */\n      tag_194\n        /* \"#utility.yul\":8159:8160   */\n      dup3\n        /* \"#utility.yul\":8141:8161   */\n      tag_87\n      jump\t// in\n    tag_194:\n        /* \"#utility.yul\":8136:8161   */\n      swap2\n      pop\n        /* \"#utility.yul\":8175:8195   */\n      tag_195\n        /* \"#utility.yul\":8193:8194   */\n      dup4\n        /* \"#utility.yul\":8175:8195   */\n      tag_87\n      jump\t// in\n    tag_195:\n        /* \"#utility.yul\":8170:8195   */\n      swap3\n      pop\n        /* \"#utility.yul\":8214:8215   */\n      dup3\n        /* \"#utility.yul\":8204:8239   */\n      tag_196\n      jumpi\n        /* \"#utility.yul\":8219:8237   */\n      tag_197\n      tag_110\n      jump\t// in\n    tag_197:\n        /* \"#utility.yul\":8204:8239   */\n    tag_196:\n        /* \"#utility.yul\":8261:8262   */\n      dup3\n        /* \"#utility.yul\":8258:8259   */\n      dup3\n        /* \"#utility.yul\":8254:8263   */\n      div\n        /* \"#utility.yul\":8249:8263   */\n      swap1\n      pop\n        /* \"#utility.yul\":8084:8269   */\n      swap3\n      swap2\n      pop\n      pop\n      jump\t// out\n        /* \"#utility.yul\":8275:8380   */\n    tag_111:\n        /* \"#utility.yul\":8311:8318   */\n      0x00\n        /* \"#utility.yul\":8351:8373   */\n      0xffffffffffffffffffff\n        /* \"#utility.yul\":8344:8349   */\n      dup3\n        /* \"#utility.yul\":8340:8374   */\n      and\n        /* \"#utility.yul\":8329:8374   */\n      swap1\n      pop\n        /* \"#utility.yul\":8275:8380   */\n      swap2\n      swap1\n      pop\n      jump\t// out\n        /* \"#utility.yul\":8386:8506   */\n    tag_112:\n        /* \"#utility.yul\":8458:8481   */\n      tag_200\n        /* \"#utility.yul\":8475:8480   */\n      dup2\n        /* \"#utility.yul\":8458:8481   */\n      tag_111\n      jump\t// in\n    tag_200:\n        /* \"#utility.yul\":8451:8456   */\n      dup2\n        /* \"#utility.yul\":8448:8482   */\n      eq\n        /* \"#utility.yul\":8438:8500   */\n      tag_201\n      jumpi\n        /* \"#utility.yul\":8496:8497   */\n      0x00\n        /* \"#utility.yul\":8493:8494   */\n      dup1\n        /* \"#utility.yul\":8486:8498   */\n      revert\n        /* \"#utility.yul\":8438:8500   */\n    tag_201:\n        /* \"#utility.yul\":8386:8506   */\n      pop\n      jump\t// out\n        /* \"#utility.yul\":8512:8653   */\n    tag_113:\n        /* \"#utility.yul\":8568:8573   */\n      0x00\n        /* \"#utility.yul\":8599:8605   */\n      dup2\n        /* \"#utility.yul\":8593:8606   */\n      mload\n        /* \"#utility.yul\":8584:8606   */\n      swap1\n      pop\n        /* \"#utility.yul\":8615:8647   */\n      tag_203\n        /* \"#utility.yul\":8641:8646   */\n      dup2\n        /* \"#utility.yul\":8615:8647   */\n      tag_112\n      jump\t// in\n    tag_203:\n        /* \"#utility.yul\":8512:8653   */\n      swap3\n      swap2\n      pop\n      pop\n      jump\t// out\n        /* \"#utility.yul\":8659:8735   */\n    tag_114:\n        /* \"#utility.yul\":8695:8702   */\n      0x00\n        /* \"#utility.yul\":8724:8729   */\n      dup2\n        /* \"#utility.yul\":8713:8729   */\n      swap1\n      pop\n        /* \"#utility.yul\":8659:8735   */\n      swap2\n      swap1\n      pop\n      jump\t// out\n        /* \"#utility.yul\":8741:8861   */\n    tag_115:\n        /* \"#utility.yul\":8813:8836   */\n      tag_206\n        /* \"#utility.yul\":8830:8835   */\n      dup2\n        /* \"#utility.yul\":8813:8836   */\n      tag_114\n      jump\t// in\n    tag_206:\n        /* \"#utility.yul\":8806:8811   */\n      dup2\n        /* \"#utility.yul\":8803:8837   */\n      eq\n        /* \"#utility.yul\":8793:8855   */\n      tag_207\n      jumpi\n        /* \"#utility.yul\":8851:8852   */\n      0x00\n        /* \"#utility.yul\":8848:8849   */\n      dup1\n        /* \"#utility.yul\":8841:8853   */\n      revert\n        /* \"#utility.yul\":8793:8855   */\n    tag_207:\n        /* \"#utility.yul\":8741:8861   */\n      pop\n      jump\t// out\n        /* \"#utility.yul\":8867:9008   */\n    tag_116:\n        /* \"#utility.yul\":8923:8928   */\n      0x00\n        /* \"#utility.yul\":8954:8960   */\n      dup2\n        /* \"#utility.yul\":8948:8961   */\n      mload\n        /* \"#utility.yul\":8939:8961   */\n      swap1\n      pop\n        /* \"#utility.yul\":8970:9002   */\n      tag_209\n        /* \"#utility.yul\":8996:9001   */\n      dup2\n        /* \"#utility.yul\":8970:9002   */\n      tag_115\n      jump\t// in\n    tag_209:\n        /* \"#utility.yul\":8867:9008   */\n      swap3\n      swap2\n      pop\n      pop\n      jump\t// out\n        /* \"#utility.yul\":9014:9157   */\n    tag_117:\n        /* \"#utility.yul\":9071:9076   */\n      0x00\n        /* \"#utility.yul\":9102:9108   */\n      dup2\n        /* \"#utility.yul\":9096:9109   */\n      mload\n        /* \"#utility.yul\":9087:9109   */\n      swap1\n      pop\n        /* \"#utility.yul\":9118:9151   */\n      tag_211\n        /* \"#utility.yul\":9145:9150   */\n      dup2\n        /* \"#utility.yul\":9118:9151   */\n      tag_92\n      jump\t// in\n    tag_211:\n        /* \"#utility.yul\":9014:9157   */\n      swap3\n      swap2\n      pop\n      pop\n      jump\t// out\n        /* \"#utility.yul\":9163:10134   */\n    tag_77:\n        /* \"#utility.yul\":9266:9272   */\n      0x00\n        /* \"#utility.yul\":9274:9280   */\n      dup1\n        /* \"#utility.yul\":9282:9288   */\n      0x00\n        /* \"#utility.yul\":9290:9296   */\n      dup1\n        /* \"#utility.yul\":9298:9304   */\n      0x00\n        /* \"#utility.yul\":9347:9350   */\n      0xa0\n        /* \"#utility.yul\":9335:9344   */\n      dup7\n        /* \"#utility.yul\":9326:9333   */\n      dup9\n        /* \"#utility.yul\":9322:9345   */\n      sub\n        /* \"#utility.yul\":9318:9351   */\n      slt\n        /* \"#utility.yul\":9315:9435   */\n      iszero\n      tag_213\n      jumpi\n        /* \"#utility.yul\":9354:9433   */\n      tag_214\n      tag_90\n      jump\t// in\n    tag_214:\n        /* \"#utility.yul\":9315:9435   */\n    tag_213:\n        /* \"#utility.yul\":9474:9475   */\n      0x00\n        /* \"#utility.yul\":9499:9562   */\n      tag_215\n        /* \"#utility.yul\":9554:9561   */\n      dup9\n        /* \"#utility.yul\":9545:9551   */\n      dup3\n        /* \"#utility.yul\":9534:9543   */\n      dup10\n        /* \"#utility.yul\":9530:9552   */\n      add\n        /* \"#utility.yul\":9499:9562   */\n      tag_113\n      jump\t// in\n    tag_215:\n        /* \"#utility.yul\":9489:9562   */\n      swap6\n      pop\n        /* \"#utility.yul\":9445:9572   */\n      pop\n        /* \"#utility.yul\":9611:9613   */\n      0x20\n        /* \"#utility.yul\":9637:9700   */\n      tag_216\n        /* \"#utility.yul\":9692:9699   */\n      dup9\n        /* \"#utility.yul\":9683:9689   */\n      dup3\n        /* \"#utility.yul\":9672:9681   */\n      dup10\n        /* \"#utility.yul\":9668:9690   */\n      add\n        /* \"#utility.yul\":9637:9700   */\n      tag_116\n      jump\t// in\n    tag_216:\n        /* \"#utility.yul\":9627:9700   */\n      swap5\n      pop\n        /* \"#utility.yul\":9582:9710   */\n      pop\n        /* \"#utility.yul\":9749:9751   */\n      0x40\n        /* \"#utility.yul\":9775:9839   */\n      tag_217\n        /* \"#utility.yul\":9831:9838   */\n      dup9\n        /* \"#utility.yul\":9822:9828   */\n      dup3\n        /* \"#utility.yul\":9811:9820   */\n      dup10\n        /* \"#utility.yul\":9807:9829   */\n      add\n        /* \"#utility.yul\":9775:9839   */\n      tag_117\n      jump\t// in\n    tag_217:\n        /* \"#utility.yul\":9765:9839   */\n      swap4\n      pop\n        /* \"#utility.yul\":9720:9849   */\n      pop\n        /* \"#utility.yul\":9888:9890   */\n      0x60\n        /* \"#utility.yul\":9914:9978   */\n      tag_218\n        /* \"#utility.yul\":9970:9977   */\n      dup9\n        /* \"#utility.yul\":9961:9967   */\n      dup3\n        /* \"#utility.yul\":9950:9959   */\n      dup10\n        /* \"#utility.yul\":9946:9968   */\n      add\n        /* \"#utility.yul\":9914:9978   */\n      tag_117\n      jump\t// in\n    tag_218:\n        /* \"#utility.yul\":9904:9978   */\n      swap3\n      pop\n        /* \"#utility.yul\":9859:9988   */\n      pop\n        /* \"#utility.yul\":10027:10030   */\n      0x80\n        /* \"#utility.yul\":10054:10117   */\n      tag_219\n        /* \"#utility.yul\":10109:10116   */\n      dup9\n        /* \"#utility.yul\":10100:10106   */\n      dup3\n        /* \"#utility.yul\":10089:10098   */\n      dup10\n        /* \"#utility.yul\":10085:10107   */\n      add\n        /* \"#utility.yul\":10054:10117   */\n      tag_113\n      jump\t// in\n    tag_219:\n        /* \"#utility.yul\":10044:10117   */\n      swap2\n      pop\n        /* \"#utility.yul\":9998:10127   */\n      pop\n        /* \"#utility.yul\":9163:10134   */\n      swap3\n      swap6\n      pop\n      swap3\n      swap6\n      swap1\n      swap4\n      pop\n      jump\t// out\n        /* \"#utility.yul\":10140:10696   */\n    tag_79:\n        /* \"#utility.yul\":10179:10186   */\n      0x00\n        /* \"#utility.yul\":10202:10221   */\n      tag_221\n        /* \"#utility.yul\":10219:10220   */\n      dup3\n        /* \"#utility.yul\":10202:10221   */\n      tag_114\n      jump\t// in\n    tag_221:\n        /* \"#utility.yul\":10197:10221   */\n      swap2\n      pop\n        /* \"#utility.yul\":10235:10254   */\n      tag_222\n        /* \"#utility.yul\":10252:10253   */\n      dup4\n        /* \"#utility.yul\":10235:10254   */\n      tag_114\n      jump\t// in\n    tag_222:\n        /* \"#utility.yul\":10230:10254   */\n      swap3\n      pop\n        /* \"#utility.yul\":10289:10290   */\n      dup3\n        /* \"#utility.yul\":10286:10287   */\n      dup3\n        /* \"#utility.yul\":10282:10291   */\n      mul\n        /* \"#utility.yul\":10311:10340   */\n      tag_223\n        /* \"#utility.yul\":10328:10339   */\n      dup2\n        /* \"#utility.yul\":10311:10340   */\n      tag_114\n      jump\t// in\n    tag_223:\n        /* \"#utility.yul\":10300:10340   */\n      swap2\n      pop\n        /* \"#utility.yul\":10398:10464   */\n      0x8000000000000000000000000000000000000000000000000000000000000000\n        /* \"#utility.yul\":10395:10396   */\n      dup5\n        /* \"#utility.yul\":10392:10465   */\n      eq\n        /* \"#utility.yul\":10388:10389   */\n      0x00\n        /* \"#utility.yul\":10385:10386   */\n      dup5\n        /* \"#utility.yul\":10381:10390   */\n      slt\n        /* \"#utility.yul\":10377:10466   */\n      and\n        /* \"#utility.yul\":10374:10489   */\n      iszero\n      tag_224\n      jumpi\n        /* \"#utility.yul\":10469:10487   */\n      tag_225\n      tag_109\n      jump\t// in\n    tag_225:\n        /* \"#utility.yul\":10374:10489   */\n    tag_224:\n        /* \"#utility.yul\":10639:10640   */\n      dup3\n        /* \"#utility.yul\":10630:10637   */\n      dup3\n        /* \"#utility.yul\":10625:10641   */\n      sdiv\n        /* \"#utility.yul\":10622:10623   */\n      dup5\n        /* \"#utility.yul\":10619:10642   */\n      eq\n        /* \"#utility.yul\":10599:10600   */\n      dup4\n        /* \"#utility.yul\":10592:10601   */\n      iszero\n        /* \"#utility.yul\":10572:10656   */\n      or\n        /* \"#utility.yul\":10549:10689   */\n      tag_226\n      jumpi\n        /* \"#utility.yul\":10669:10687   */\n      tag_227\n      tag_109\n      jump\t// in\n    tag_227:\n        /* \"#utility.yul\":10549:10689   */\n    tag_226:\n        /* \"#utility.yul\":10187:10696   */\n      pop\n        /* \"#utility.yul\":10140:10696   */\n      swap3\n      swap2\n      pop\n      pop\n      jump\t// out\n\n    auxdata: 0xa2646970667358221220f3c2a35fd1e818622dfeff7ae379fecd8e328cdbab488ea486c38bcef561d1da64736f6c634300081a0033\n}\n",
				"bytecode": {
					"linkReferences": {},
					"object": "6080604052348015600e575f80fd5b50610c0b8061001c5f395ff3fe608060405260043610610049575f3560e01c80633ccfd60b1461004d57806373cef39114610063578063b60d42881461008d578063dc0d3dff14610097578063de2b1221146100d3575b5f80fd5b348015610058575f80fd5b5061006161010f565b005b34801561006e575f80fd5b50610077610332565b6040516100849190610662565b60405180910390f35b61009561033e565b005b3480156100a2575f80fd5b506100bd60048036038101906100b891906106a9565b61047c565b6040516100ca9190610713565b60405180910390f35b3480156100de575f80fd5b506100f960048036038101906100f49190610756565b6104b6565b6040516101069190610662565b60405180910390f35b7327ce496d9c4f570e38b85489f55e548923b6084873ffffffffffffffffffffffffffffffffffffffff163373ffffffffffffffffffffffffffffffffffffffff1614610191576040517f08c379a0000000000000000000000000000000000000000000000000000000008152600401610188906107db565b60405180910390fd5b5f5b5f80549050811015610228575f60015f8084815481106101b6576101b56107f9565b5b905f5260205f20015f9054906101000a900473ffffffffffffffffffffffffffffffffffffffff1673ffffffffffffffffffffffffffffffffffffffff1673ffffffffffffffffffffffffffffffffffffffff1681526020019081526020015f20819055508080600101915050610193565b505f67ffffffffffffffff81111561024357610242610826565b5b6040519080825280602002602001820160405280156102715781602001602082028036833780820191505090505b505f90805190602001906102869291906105a8565b505f3373ffffffffffffffffffffffffffffffffffffffff16476040516102ac90610880565b5f6040518083038185875af1925050503d805f81146102e6576040519150601f19603f3d011682016040523d82523d5f602084013e6102eb565b606091505b505090508061032f576040517f08c379a0000000000000000000000000000000000000000000000000000000008152600401610326906108de565b60405180910390fd5b50565b674563918244f4000081565b674563918244f40000610350346104cb565b1015610391576040517f08c379a000000000000000000000000000000000000000000000000000000000815260040161038890610946565b60405180910390fd5b5f33908060018154018082558091505060019003905f5260205f20015f9091909190916101000a81548173ffffffffffffffffffffffffffffffffffffffff021916908373ffffffffffffffffffffffffffffffffffffffff1602179055503460015f3373ffffffffffffffffffffffffffffffffffffffff1673ffffffffffffffffffffffffffffffffffffffff1681526020019081526020015f20546104399190610991565b60015f3373ffffffffffffffffffffffffffffffffffffffff1673ffffffffffffffffffffffffffffffffffffffff1681526020019081526020015f2081905550565b5f818154811061048a575f80fd5b905f5260205f20015f915054906101000a900473ffffffffffffffffffffffffffffffffffffffff1681565b6001602052805f5260405f205f915090505481565b5f806104d5610503565b90505f670de0b6b3a764000084836104ed91906109c4565b6104f79190610a32565b90508092505050919050565b5f8073694aa1769357215de4fac081bf1f309adc32530690505f8173ffffffffffffffffffffffffffffffffffffffff1663feaf968c6040518163ffffffff1660e01b815260040160a060405180830381865afa158015610566573d5f803e3d5ffd5b505050506040513d601f19601f8201168201806040525081019061058a9190610ae8565b5050509150506402540be400816105a19190610b5f565b9250505090565b828054828255905f5260205f2090810192821561061e579160200282015b8281111561061d578251825f6101000a81548173ffffffffffffffffffffffffffffffffffffffff021916908373ffffffffffffffffffffffffffffffffffffffff160217905550916020019190600101906105c6565b5b50905061062b919061062f565b5090565b5b80821115610646575f815f905550600101610630565b5090565b5f819050919050565b61065c8161064a565b82525050565b5f6020820190506106755f830184610653565b92915050565b5f80fd5b6106888161064a565b8114610692575f80fd5b50565b5f813590506106a38161067f565b92915050565b5f602082840312156106be576106bd61067b565b5b5f6106cb84828501610695565b91505092915050565b5f73ffffffffffffffffffffffffffffffffffffffff82169050919050565b5f6106fd826106d4565b9050919050565b61070d816106f3565b82525050565b5f6020820190506107265f830184610704565b92915050565b610735816106f3565b811461073f575f80fd5b50565b5f813590506107508161072c565b92915050565b5f6020828403121561076b5761076a61067b565b5b5f61077884828501610742565b91505092915050565b5f82825260208201905092915050565b7f796f7572206e6f742061206f776e6572210000000000000000000000000000005f82015250565b5f6107c5601183610781565b91506107d082610791565b602082019050919050565b5f6020820190508181035f8301526107f2816107b9565b9050919050565b7f4e487b71000000000000000000000000000000000000000000000000000000005f52603260045260245ffd5b7f4e487b71000000000000000000000000000000000000000000000000000000005f52604160045260245ffd5b5f81905092915050565b50565b5f61086b5f83610853565b91506108768261085d565b5f82019050919050565b5f61088a82610860565b9150819050919050565b7f7472616e73656374696f6e206973206661696c656400000000000000000000005f82015250565b5f6108c8601583610781565b91506108d382610894565b602082019050919050565b5f6020820190508181035f8301526108f5816108bc565b9050919050565b7f6469646e27742073656e6420656e6f75676820455448000000000000000000005f82015250565b5f610930601683610781565b915061093b826108fc565b602082019050919050565b5f6020820190508181035f83015261095d81610924565b9050919050565b7f4e487b71000000000000000000000000000000000000000000000000000000005f52601160045260245ffd5b5f61099b8261064a565b91506109a68361064a565b92508282019050808211156109be576109bd610964565b5b92915050565b5f6109ce8261064a565b91506109d98361064a565b92508282026109e78161064a565b915082820484148315176109fe576109fd610964565b5b5092915050565b7f4e487b71000000000000000000000000000000000000000000000000000000005f52601260045260245ffd5b5f610a3c8261064a565b9150610a478361064a565b925082610a5757610a56610a05565b5b828204905092915050565b5f69ffffffffffffffffffff82169050919050565b610a8081610a62565b8114610a8a575f80fd5b50565b5f81519050610a9b81610a77565b92915050565b5f819050919050565b610ab381610aa1565b8114610abd575f80fd5b50565b5f81519050610ace81610aaa565b92915050565b5f81519050610ae28161067f565b92915050565b5f805f805f60a08688031215610b0157610b0061067b565b5b5f610b0e88828901610a8d565b9550506020610b1f88828901610ac0565b9450506040610b3088828901610ad4565b9350506060610b4188828901610ad4565b9250506080610b5288828901610a8d565b9150509295509295909350565b5f610b6982610aa1565b9150610b7483610aa1565b9250828202610b8281610aa1565b91507f800000000000000000000000000000000000000000000000000000000000000084145f84121615610bb957610bb8610964565b5b8282058414831517610bce57610bcd610964565b5b509291505056fea2646970667358221220f3c2a35fd1e818622dfeff7ae379fecd8e328cdbab488ea486c38bcef561d1da64736f6c634300081a0033",
					"opcodes": "PUSH1 0x80 PUSH1 0x40 MSTORE CALLVALUE DUP1 ISZERO PUSH1 0xE JUMPI PUSH0 DUP1 REVERT JUMPDEST POP PUSH2 0xC0B DUP1 PUSH2 0x1C PUSH0 CODECOPY PUSH0 RETURN INVALID PUSH1 0x80 PUSH1 0x40 MSTORE PUSH1 0x4 CALLDATASIZE LT PUSH2 0x49 JUMPI PUSH0 CALLDATALOAD PUSH1 0xE0 SHR DUP1 PUSH4 0x3CCFD60B EQ PUSH2 0x4D JUMPI DUP1 PUSH4 0x73CEF391 EQ PUSH2 0x63 JUMPI DUP1 PUSH4 0xB60D4288 EQ PUSH2 0x8D JUMPI DUP1 PUSH4 0xDC0D3DFF EQ PUSH2 0x97 JUMPI DUP1 PUSH4 0xDE2B1221 EQ PUSH2 0xD3 JUMPI JUMPDEST PUSH0 DUP1 REVERT JUMPDEST CALLVALUE DUP1 ISZERO PUSH2 0x58 JUMPI PUSH0 DUP1 REVERT JUMPDEST POP PUSH2 0x61 PUSH2 0x10F JUMP JUMPDEST STOP JUMPDEST CALLVALUE DUP1 ISZERO PUSH2 0x6E JUMPI PUSH0 DUP1 REVERT JUMPDEST POP PUSH2 0x77 PUSH2 0x332 JUMP JUMPDEST PUSH1 0x40 MLOAD PUSH2 0x84 SWAP2 SWAP1 PUSH2 0x662 JUMP JUMPDEST PUSH1 0x40 MLOAD DUP1 SWAP2 SUB SWAP1 RETURN JUMPDEST PUSH2 0x95 PUSH2 0x33E JUMP JUMPDEST STOP JUMPDEST CALLVALUE DUP1 ISZERO PUSH2 0xA2 JUMPI PUSH0 DUP1 REVERT JUMPDEST POP PUSH2 0xBD PUSH1 0x4 DUP1 CALLDATASIZE SUB DUP2 ADD SWAP1 PUSH2 0xB8 SWAP2 SWAP1 PUSH2 0x6A9 JUMP JUMPDEST PUSH2 0x47C JUMP JUMPDEST PUSH1 0x40 MLOAD PUSH2 0xCA SWAP2 SWAP1 PUSH2 0x713 JUMP JUMPDEST PUSH1 0x40 MLOAD DUP1 SWAP2 SUB SWAP1 RETURN JUMPDEST CALLVALUE DUP1 ISZERO PUSH2 0xDE JUMPI PUSH0 DUP1 REVERT JUMPDEST POP PUSH2 0xF9 PUSH1 0x4 DUP1 CALLDATASIZE SUB DUP2 ADD SWAP1 PUSH2 0xF4 SWAP2 SWAP1 PUSH2 0x756 JUMP JUMPDEST PUSH2 0x4B6 JUMP JUMPDEST PUSH1 0x40 MLOAD PUSH2 0x106 SWAP2 SWAP1 PUSH2 0x662 JUMP JUMPDEST PUSH1 0x40 MLOAD DUP1 SWAP2 SUB SWAP1 RETURN JUMPDEST PUSH20 0x27CE496D9C4F570E38B85489F55E548923B60848 PUSH20 0xFFFFFFFFFFFFFFFFFFFFFFFFFFFFFFFFFFFFFFFF AND CALLER PUSH20 0xFFFFFFFFFFFFFFFFFFFFFFFFFFFFFFFFFFFFFFFF AND EQ PUSH2 0x191 JUMPI PUSH1 0x40 MLOAD PUSH32 0x8C379A000000000000000000000000000000000000000000000000000000000 DUP2 MSTORE PUSH1 0x4 ADD PUSH2 0x188 SWAP1 PUSH2 0x7DB JUMP JUMPDEST PUSH1 0x40 MLOAD DUP1 SWAP2 SUB SWAP1 REVERT JUMPDEST PUSH0 JUMPDEST PUSH0 DUP1 SLOAD SWAP1 POP DUP2 LT ISZERO PUSH2 0x228 JUMPI PUSH0 PUSH1 0x1 PUSH0 DUP1 DUP5 DUP2 SLOAD DUP2 LT PUSH2 0x1B6 JUMPI PUSH2 0x1B5 PUSH2 0x7F9 JUMP JUMPDEST JUMPDEST SWAP1 PUSH0 MSTORE PUSH1 0x20 PUSH0 KECCAK256 ADD PUSH0 SWAP1 SLOAD SWAP1 PUSH2 0x100 EXP SWAP1 DIV PUSH20 0xFFFFFFFFFFFFFFFFFFFFFFFFFFFFFFFFFFFFFFFF AND PUSH20 0xFFFFFFFFFFFFFFFFFFFFFFFFFFFFFFFFFFFFFFFF AND PUSH20 0xFFFFFFFFFFFFFFFFFFFFFFFFFFFFFFFFFFFFFFFF AND DUP2 MSTORE PUSH1 0x20 ADD SWAP1 DUP2 MSTORE PUSH1 0x20 ADD PUSH0 KECCAK256 DUP2 SWAP1 SSTORE POP DUP1 DUP1 PUSH1 0x1 ADD SWAP2 POP POP PUSH2 0x193 JUMP JUMPDEST POP PUSH0 PUSH8 0xFFFFFFFFFFFFFFFF DUP2 GT ISZERO PUSH2 0x243 JUMPI PUSH2 0x242 PUSH2 0x826 JUMP JUMPDEST JUMPDEST PUSH1 0x40 MLOAD SWAP1 DUP1 DUP3 MSTORE DUP1 PUSH1 0x20 MUL PUSH1 0x20 ADD DUP3 ADD PUSH1 0x40 MSTORE DUP1 ISZERO PUSH2 0x271 JUMPI DUP2 PUSH1 0x20 ADD PUSH1 0x20 DUP3 MUL DUP1 CALLDATASIZE DUP4 CALLDATACOPY DUP1 DUP3 ADD SWAP2 POP POP SWAP1 POP JUMPDEST POP PUSH0 SWAP1 DUP1 MLOAD SWAP1 PUSH1 0x20 ADD SWAP1 PUSH2 0x286 SWAP3 SWAP2 SWAP1 PUSH2 0x5A8 JUMP JUMPDEST POP PUSH0 CALLER PUSH20 0xFFFFFFFFFFFFFFFFFFFFFFFFFFFFFFFFFFFFFFFF AND SELFBALANCE PUSH1 0x40 MLOAD PUSH2 0x2AC SWAP1 PUSH2 0x880 JUMP JUMPDEST PUSH0 PUSH1 0x40 MLOAD DUP1 DUP4 SUB DUP2 DUP6 DUP8 GAS CALL SWAP3 POP POP POP RETURNDATASIZE DUP1 PUSH0 DUP2 EQ PUSH2 0x2E6 JUMPI PUSH1 0x40 MLOAD SWAP2 POP PUSH1 0x1F NOT PUSH1 0x3F RETURNDATASIZE ADD AND DUP3 ADD PUSH1 0x40 MSTORE RETURNDATASIZE DUP3 MSTORE RETURNDATASIZE PUSH0 PUSH1 0x20 DUP5 ADD RETURNDATACOPY PUSH2 0x2EB JUMP JUMPDEST PUSH1 0x60 SWAP2 POP JUMPDEST POP POP SWAP1 POP DUP1 PUSH2 0x32F JUMPI PUSH1 0x40 MLOAD PUSH32 0x8C379A000000000000000000000000000000000000000000000000000000000 DUP2 MSTORE PUSH1 0x4 ADD PUSH2 0x326 SWAP1 PUSH2 0x8DE JUMP JUMPDEST PUSH1 0x40 MLOAD DUP1 SWAP2 SUB SWAP1 REVERT JUMPDEST POP JUMP JUMPDEST PUSH8 0x4563918244F40000 DUP2 JUMP JUMPDEST PUSH8 0x4563918244F40000 PUSH2 0x350 CALLVALUE PUSH2 0x4CB JUMP JUMPDEST LT ISZERO PUSH2 0x391 JUMPI PUSH1 0x40 MLOAD PUSH32 0x8C379A000000000000000000000000000000000000000000000000000000000 DUP2 MSTORE PUSH1 0x4 ADD PUSH2 0x388 SWAP1 PUSH2 0x946 JUMP JUMPDEST PUSH1 0x40 MLOAD DUP1 SWAP2 SUB SWAP1 REVERT JUMPDEST PUSH0 CALLER SWAP1 DUP1 PUSH1 0x1 DUP2 SLOAD ADD DUP1 DUP3 SSTORE DUP1 SWAP2 POP POP PUSH1 0x1 SWAP1 SUB SWAP1 PUSH0 MSTORE PUSH1 0x20 PUSH0 KECCAK256 ADD PUSH0 SWAP1 SWAP2 SWAP1 SWAP2 SWAP1 SWAP2 PUSH2 0x100 EXP DUP2 SLOAD DUP2 PUSH20 0xFFFFFFFFFFFFFFFFFFFFFFFFFFFFFFFFFFFFFFFF MUL NOT AND SWAP1 DUP4 PUSH20 0xFFFFFFFFFFFFFFFFFFFFFFFFFFFFFFFFFFFFFFFF AND MUL OR SWAP1 SSTORE POP CALLVALUE PUSH1 0x1 PUSH0 CALLER PUSH20 0xFFFFFFFFFFFFFFFFFFFFFFFFFFFFFFFFFFFFFFFF AND PUSH20 0xFFFFFFFFFFFFFFFFFFFFFFFFFFFFFFFFFFFFFFFF AND DUP2 MSTORE PUSH1 0x20 ADD SWAP1 DUP2 MSTORE PUSH1 0x20 ADD PUSH0 KECCAK256 SLOAD PUSH2 0x439 SWAP2 SWAP1 PUSH2 0x991 JUMP JUMPDEST PUSH1 0x1 PUSH0 CALLER PUSH20 0xFFFFFFFFFFFFFFFFFFFFFFFFFFFFFFFFFFFFFFFF AND PUSH20 0xFFFFFFFFFFFFFFFFFFFFFFFFFFFFFFFFFFFFFFFF AND DUP2 MSTORE PUSH1 0x20 ADD SWAP1 DUP2 MSTORE PUSH1 0x20 ADD PUSH0 KECCAK256 DUP2 SWAP1 SSTORE POP JUMP JUMPDEST PUSH0 DUP2 DUP2 SLOAD DUP2 LT PUSH2 0x48A JUMPI PUSH0 DUP1 REVERT JUMPDEST SWAP1 PUSH0 MSTORE PUSH1 0x20 PUSH0 KECCAK256 ADD PUSH0 SWAP2 POP SLOAD SWAP1 PUSH2 0x100 EXP SWAP1 DIV PUSH20 0xFFFFFFFFFFFFFFFFFFFFFFFFFFFFFFFFFFFFFFFF AND DUP2 JUMP JUMPDEST PUSH1 0x1 PUSH1 0x20 MSTORE DUP1 PUSH0 MSTORE PUSH1 0x40 PUSH0 KECCAK256 PUSH0 SWAP2 POP SWAP1 POP SLOAD DUP2 JUMP JUMPDEST PUSH0 DUP1 PUSH2 0x4D5 PUSH2 0x503 JUMP JUMPDEST SWAP1 POP PUSH0 PUSH8 0xDE0B6B3A7640000 DUP5 DUP4 PUSH2 0x4ED SWAP2 SWAP1 PUSH2 0x9C4 JUMP JUMPDEST PUSH2 0x4F7 SWAP2 SWAP1 PUSH2 0xA32 JUMP JUMPDEST SWAP1 POP DUP1 SWAP3 POP POP POP SWAP2 SWAP1 POP JUMP JUMPDEST PUSH0 DUP1 PUSH20 0x694AA1769357215DE4FAC081BF1F309ADC325306 SWAP1 POP PUSH0 DUP2 PUSH20 0xFFFFFFFFFFFFFFFFFFFFFFFFFFFFFFFFFFFFFFFF AND PUSH4 0xFEAF968C PUSH1 0x40 MLOAD DUP2 PUSH4 0xFFFFFFFF AND PUSH1 0xE0 SHL DUP2 MSTORE PUSH1 0x4 ADD PUSH1 0xA0 PUSH1 0x40 MLOAD DUP1 DUP4 SUB DUP2 DUP7 GAS STATICCALL ISZERO DUP1 ISZERO PUSH2 0x566 JUMPI RETURNDATASIZE PUSH0 DUP1 RETURNDATACOPY RETURNDATASIZE PUSH0 REVERT JUMPDEST POP POP POP POP PUSH1 0x40 MLOAD RETURNDATASIZE PUSH1 0x1F NOT PUSH1 0x1F DUP3 ADD AND DUP3 ADD DUP1 PUSH1 0x40 MSTORE POP DUP2 ADD SWAP1 PUSH2 0x58A SWAP2 SWAP1 PUSH2 0xAE8 JUMP JUMPDEST POP POP POP SWAP2 POP POP PUSH5 0x2540BE400 DUP2 PUSH2 0x5A1 SWAP2 SWAP1 PUSH2 0xB5F JUMP JUMPDEST SWAP3 POP POP POP SWAP1 JUMP JUMPDEST DUP3 DUP1 SLOAD DUP3 DUP3 SSTORE SWAP1 PUSH0 MSTORE PUSH1 0x20 PUSH0 KECCAK256 SWAP1 DUP2 ADD SWAP3 DUP3 ISZERO PUSH2 0x61E JUMPI SWAP2 PUSH1 0x20 MUL DUP3 ADD JUMPDEST DUP3 DUP2 GT ISZERO PUSH2 0x61D JUMPI DUP3 MLOAD DUP3 PUSH0 PUSH2 0x100 EXP DUP2 SLOAD DUP2 PUSH20 0xFFFFFFFFFFFFFFFFFFFFFFFFFFFFFFFFFFFFFFFF MUL NOT AND SWAP1 DUP4 PUSH20 0xFFFFFFFFFFFFFFFFFFFFFFFFFFFFFFFFFFFFFFFF AND MUL OR SWAP1 SSTORE POP SWAP2 PUSH1 0x20 ADD SWAP2 SWAP1 PUSH1 0x1 ADD SWAP1 PUSH2 0x5C6 JUMP JUMPDEST JUMPDEST POP SWAP1 POP PUSH2 0x62B SWAP2 SWAP1 PUSH2 0x62F JUMP JUMPDEST POP SWAP1 JUMP JUMPDEST JUMPDEST DUP1 DUP3 GT ISZERO PUSH2 0x646 JUMPI PUSH0 DUP2 PUSH0 SWAP1 SSTORE POP PUSH1 0x1 ADD PUSH2 0x630 JUMP JUMPDEST POP SWAP1 JUMP JUMPDEST PUSH0 DUP2 SWAP1 POP SWAP2 SWAP1 POP JUMP JUMPDEST PUSH2 0x65C DUP2 PUSH2 0x64A JUMP JUMPDEST DUP3 MSTORE POP POP JUMP JUMPDEST PUSH0 PUSH1 0x20 DUP3 ADD SWAP1 POP PUSH2 0x675 PUSH0 DUP4 ADD DUP5 PUSH2 0x653 JUMP JUMPDEST SWAP3 SWAP2 POP POP JUMP JUMPDEST PUSH0 DUP1 REVERT JUMPDEST PUSH2 0x688 DUP2 PUSH2 0x64A JUMP JUMPDEST DUP2 EQ PUSH2 0x692 JUMPI PUSH0 DUP1 REVERT JUMPDEST POP JUMP JUMPDEST PUSH0 DUP2 CALLDATALOAD SWAP1 POP PUSH2 0x6A3 DUP2 PUSH2 0x67F JUMP JUMPDEST SWAP3 SWAP2 POP POP JUMP JUMPDEST PUSH0 PUSH1 0x20 DUP3 DUP5 SUB SLT ISZERO PUSH2 0x6BE JUMPI PUSH2 0x6BD PUSH2 0x67B JUMP JUMPDEST JUMPDEST PUSH0 PUSH2 0x6CB DUP5 DUP3 DUP6 ADD PUSH2 0x695 JUMP JUMPDEST SWAP2 POP POP SWAP3 SWAP2 POP POP JUMP JUMPDEST PUSH0 PUSH20 0xFFFFFFFFFFFFFFFFFFFFFFFFFFFFFFFFFFFFFFFF DUP3 AND SWAP1 POP SWAP2 SWAP1 POP JUMP JUMPDEST PUSH0 PUSH2 0x6FD DUP3 PUSH2 0x6D4 JUMP JUMPDEST SWAP1 POP SWAP2 SWAP1 POP JUMP JUMPDEST PUSH2 0x70D DUP2 PUSH2 0x6F3 JUMP JUMPDEST DUP3 MSTORE POP POP JUMP JUMPDEST PUSH0 PUSH1 0x20 DUP3 ADD SWAP1 POP PUSH2 0x726 PUSH0 DUP4 ADD DUP5 PUSH2 0x704 JUMP JUMPDEST SWAP3 SWAP2 POP POP JUMP JUMPDEST PUSH2 0x735 DUP2 PUSH2 0x6F3 JUMP JUMPDEST DUP2 EQ PUSH2 0x73F JUMPI PUSH0 DUP1 REVERT JUMPDEST POP JUMP JUMPDEST PUSH0 DUP2 CALLDATALOAD SWAP1 POP PUSH2 0x750 DUP2 PUSH2 0x72C JUMP JUMPDEST SWAP3 SWAP2 POP POP JUMP JUMPDEST PUSH0 PUSH1 0x20 DUP3 DUP5 SUB SLT ISZERO PUSH2 0x76B JUMPI PUSH2 0x76A PUSH2 0x67B JUMP JUMPDEST JUMPDEST PUSH0 PUSH2 0x778 DUP5 DUP3 DUP6 ADD PUSH2 0x742 JUMP JUMPDEST SWAP2 POP POP SWAP3 SWAP2 POP POP JUMP JUMPDEST PUSH0 DUP3 DUP3 MSTORE PUSH1 0x20 DUP3 ADD SWAP1 POP SWAP3 SWAP2 POP POP JUMP JUMPDEST PUSH32 0x796F7572206E6F742061206F776E657221000000000000000000000000000000 PUSH0 DUP3 ADD MSTORE POP JUMP JUMPDEST PUSH0 PUSH2 0x7C5 PUSH1 0x11 DUP4 PUSH2 0x781 JUMP JUMPDEST SWAP2 POP PUSH2 0x7D0 DUP3 PUSH2 0x791 JUMP JUMPDEST PUSH1 0x20 DUP3 ADD SWAP1 POP SWAP2 SWAP1 POP JUMP JUMPDEST PUSH0 PUSH1 0x20 DUP3 ADD SWAP1 POP DUP2 DUP2 SUB PUSH0 DUP4 ADD MSTORE PUSH2 0x7F2 DUP2 PUSH2 0x7B9 JUMP JUMPDEST SWAP1 POP SWAP2 SWAP1 POP JUMP JUMPDEST PUSH32 0x4E487B7100000000000000000000000000000000000000000000000000000000 PUSH0 MSTORE PUSH1 0x32 PUSH1 0x4 MSTORE PUSH1 0x24 PUSH0 REVERT JUMPDEST PUSH32 0x4E487B7100000000000000000000000000000000000000000000000000000000 PUSH0 MSTORE PUSH1 0x41 PUSH1 0x4 MSTORE PUSH1 0x24 PUSH0 REVERT JUMPDEST PUSH0 DUP2 SWAP1 POP SWAP3 SWAP2 POP POP JUMP JUMPDEST POP JUMP JUMPDEST PUSH0 PUSH2 0x86B PUSH0 DUP4 PUSH2 0x853 JUMP JUMPDEST SWAP2 POP PUSH2 0x876 DUP3 PUSH2 0x85D JUMP JUMPDEST PUSH0 DUP3 ADD SWAP1 POP SWAP2 SWAP1 POP JUMP JUMPDEST PUSH0 PUSH2 0x88A DUP3 PUSH2 0x860 JUMP JUMPDEST SWAP2 POP DUP2 SWAP1 POP SWAP2 SWAP1 POP JUMP JUMPDEST PUSH32 0x7472616E73656374696F6E206973206661696C65640000000000000000000000 PUSH0 DUP3 ADD MSTORE POP JUMP JUMPDEST PUSH0 PUSH2 0x8C8 PUSH1 0x15 DUP4 PUSH2 0x781 JUMP JUMPDEST SWAP2 POP PUSH2 0x8D3 DUP3 PUSH2 0x894 JUMP JUMPDEST PUSH1 0x20 DUP3 ADD SWAP1 POP SWAP2 SWAP1 POP JUMP JUMPDEST PUSH0 PUSH1 0x20 DUP3 ADD SWAP1 POP DUP2 DUP2 SUB PUSH0 DUP4 ADD MSTORE PUSH2 0x8F5 DUP2 PUSH2 0x8BC JUMP JUMPDEST SWAP1 POP SWAP2 SWAP1 POP JUMP JUMPDEST PUSH32 0x6469646E27742073656E6420656E6F7567682045544800000000000000000000 PUSH0 DUP3 ADD MSTORE POP JUMP JUMPDEST PUSH0 PUSH2 0x930 PUSH1 0x16 DUP4 PUSH2 0x781 JUMP JUMPDEST SWAP2 POP PUSH2 0x93B DUP3 PUSH2 0x8FC JUMP JUMPDEST PUSH1 0x20 DUP3 ADD SWAP1 POP SWAP2 SWAP1 POP JUMP JUMPDEST PUSH0 PUSH1 0x20 DUP3 ADD SWAP1 POP DUP2 DUP2 SUB PUSH0 DUP4 ADD MSTORE PUSH2 0x95D DUP2 PUSH2 0x924 JUMP JUMPDEST SWAP1 POP SWAP2 SWAP1 POP JUMP JUMPDEST PUSH32 0x4E487B7100000000000000000000000000000000000000000000000000000000 PUSH0 MSTORE PUSH1 0x11 PUSH1 0x4 MSTORE PUSH1 0x24 PUSH0 REVERT JUMPDEST PUSH0 PUSH2 0x99B DUP3 PUSH2 0x64A JUMP JUMPDEST SWAP2 POP PUSH2 0x9A6 DUP4 PUSH2 0x64A JUMP JUMPDEST SWAP3 POP DUP3 DUP3 ADD SWAP1 POP DUP1 DUP3 GT ISZERO PUSH2 0x9BE JUMPI PUSH2 0x9BD PUSH2 0x964 JUMP JUMPDEST JUMPDEST SWAP3 SWAP2 POP POP JUMP JUMPDEST PUSH0 PUSH2 0x9CE DUP3 PUSH2 0x64A JUMP JUMPDEST SWAP2 POP PUSH2 0x9D9 DUP4 PUSH2 0x64A JUMP JUMPDEST SWAP3 POP DUP3 DUP3 MUL PUSH2 0x9E7 DUP2 PUSH2 0x64A JUMP JUMPDEST SWAP2 POP DUP3 DUP3 DIV DUP5 EQ DUP4 ISZERO OR PUSH2 0x9FE JUMPI PUSH2 0x9FD PUSH2 0x964 JUMP JUMPDEST JUMPDEST POP SWAP3 SWAP2 POP POP JUMP JUMPDEST PUSH32 0x4E487B7100000000000000000000000000000000000000000000000000000000 PUSH0 MSTORE PUSH1 0x12 PUSH1 0x4 MSTORE PUSH1 0x24 PUSH0 REVERT JUMPDEST PUSH0 PUSH2 0xA3C DUP3 PUSH2 0x64A JUMP JUMPDEST SWAP2 POP PUSH2 0xA47 DUP4 PUSH2 0x64A JUMP JUMPDEST SWAP3 POP DUP3 PUSH2 0xA57 JUMPI PUSH2 0xA56 PUSH2 0xA05 JUMP JUMPDEST JUMPDEST DUP3 DUP3 DIV SWAP1 POP SWAP3 SWAP2 POP POP JUMP JUMPDEST PUSH0 PUSH10 0xFFFFFFFFFFFFFFFFFFFF DUP3 AND SWAP1 POP SWAP2 SWAP1 POP JUMP JUMPDEST PUSH2 0xA80 DUP2 PUSH2 0xA62 JUMP JUMPDEST DUP2 EQ PUSH2 0xA8A JUMPI PUSH0 DUP1 REVERT JUMPDEST POP JUMP JUMPDEST PUSH0 DUP2 MLOAD SWAP1 POP PUSH2 0xA9B DUP2 PUSH2 0xA77 JUMP JUMPDEST SWAP3 SWAP2 POP POP JUMP JUMPDEST PUSH0 DUP2 SWAP1 POP SWAP2 SWAP1 POP JUMP JUMPDEST PUSH2 0xAB3 DUP2 PUSH2 0xAA1 JUMP JUMPDEST DUP2 EQ PUSH2 0xABD JUMPI PUSH0 DUP1 REVERT JUMPDEST POP JUMP JUMPDEST PUSH0 DUP2 MLOAD SWAP1 POP PUSH2 0xACE DUP2 PUSH2 0xAAA JUMP JUMPDEST SWAP3 SWAP2 POP POP JUMP JUMPDEST PUSH0 DUP2 MLOAD SWAP1 POP PUSH2 0xAE2 DUP2 PUSH2 0x67F JUMP JUMPDEST SWAP3 SWAP2 POP POP JUMP JUMPDEST PUSH0 DUP1 PUSH0 DUP1 PUSH0 PUSH1 0xA0 DUP7 DUP9 SUB SLT ISZERO PUSH2 0xB01 JUMPI PUSH2 0xB00 PUSH2 0x67B JUMP JUMPDEST JUMPDEST PUSH0 PUSH2 0xB0E DUP9 DUP3 DUP10 ADD PUSH2 0xA8D JUMP JUMPDEST SWAP6 POP POP PUSH1 0x20 PUSH2 0xB1F DUP9 DUP3 DUP10 ADD PUSH2 0xAC0 JUMP JUMPDEST SWAP5 POP POP PUSH1 0x40 PUSH2 0xB30 DUP9 DUP3 DUP10 ADD PUSH2 0xAD4 JUMP JUMPDEST SWAP4 POP POP PUSH1 0x60 PUSH2 0xB41 DUP9 DUP3 DUP10 ADD PUSH2 0xAD4 JUMP JUMPDEST SWAP3 POP POP PUSH1 0x80 PUSH2 0xB52 DUP9 DUP3 DUP10 ADD PUSH2 0xA8D JUMP JUMPDEST SWAP2 POP POP SWAP3 SWAP6 POP SWAP3 SWAP6 SWAP1 SWAP4 POP JUMP JUMPDEST PUSH0 PUSH2 0xB69 DUP3 PUSH2 0xAA1 JUMP JUMPDEST SWAP2 POP PUSH2 0xB74 DUP4 PUSH2 0xAA1 JUMP JUMPDEST SWAP3 POP DUP3 DUP3 MUL PUSH2 0xB82 DUP2 PUSH2 0xAA1 JUMP JUMPDEST SWAP2 POP PUSH32 0x8000000000000000000000000000000000000000000000000000000000000000 DUP5 EQ PUSH0 DUP5 SLT AND ISZERO PUSH2 0xBB9 JUMPI PUSH2 0xBB8 PUSH2 0x964 JUMP JUMPDEST JUMPDEST DUP3 DUP3 SDIV DUP5 EQ DUP4 ISZERO OR PUSH2 0xBCE JUMPI PUSH2 0xBCD PUSH2 0x964 JUMP JUMPDEST JUMPDEST POP SWAP3 SWAP2 POP POP JUMP INVALID LOG2 PUSH5 0x6970667358 0x22 SLT KECCAK256 RETURN 0xC2 LOG3 PUSH0 0xD1 0xE8 XOR PUSH3 0x2DFEFF PUSH27 0xE379FECD8E328CDBAB488EA486C38BCEF561D1DA64736F6C634300 ADDMOD BYTE STOP CALLER "
				},
				"gasEstimates": {
					"creation": {
						"codeDepositCost": "616600",
						"executionCost": "649",
						"totalCost": "617249"
					},
					"external": {
						"addtofunded(address)": "2868",
						"fund()": "infinite",
						"funders(uint256)": "4987",
						"miniUSD()": "325",
						"withdraw()": "infinite"
					}
				},
				"methodIdentifiers": {
					"addtofunded(address)": "de2b1221",
					"fund()": "b60d4288",
					"funders(uint256)": "dc0d3dff",
					"miniUSD()": "73cef391",
					"withdraw()": "3ccfd60b"
				}
			},
			"storageLayout": {
				"storage": [
					{
						"astId": 58,
						"contract": "contract/fundme/fundme.sol:Fundme",
						"label": "funders",
						"offset": 0,
						"slot": "0",
						"type": "t_array(t_address)dyn_storage"
					},
					{
						"astId": 62,
						"contract": "contract/fundme/fundme.sol:Fundme",
						"label": "addtofunded",
						"offset": 0,
						"slot": "1",
						"type": "t_mapping(t_address,t_uint256)"
					}
				],
				"types": {
					"t_address": {
						"encoding": "inplace",
						"label": "address",
						"numberOfBytes": "20"
					},
					"t_array(t_address)dyn_storage": {
						"base": "t_address",
						"encoding": "dynamic_array",
						"label": "address[]",
						"numberOfBytes": "32"
					},
					"t_mapping(t_address,t_uint256)": {
						"encoding": "mapping",
						"key": "t_address",
						"label": "mapping(address => uint256)",
						"numberOfBytes": "32",
						"value": "t_uint256"
					},
					"t_uint256": {
						"encoding": "inplace",
						"label": "uint256",
						"numberOfBytes": "32"
					}
				}
			},
			"userdoc": {
				"kind": "user",
				"methods": {},
				"version": 1
			}
		}
	}
}